:020000040800F2
:10000000000005208D3E0008DD3E0008DD3E0008B2
:10001000DD3E0008DD3E0008DD3E00080000000077
:10002000000000000000000000000000DD3E0008AD
:10003000DD3E000800000000DD3E0008DD3E000857
:10004000DD3E0008DD3E0008DD3E0008DD3E000824
:10005000DD3E0008DD3E0008012F0008DD3E0008FF
:10006000D1310008DD3E0008D9330008DD3E00082C
:10007000DD3E0008DD3E0008DD3E0008DD3E0008F4
:10008000DD3E0008DD3E0008DD3E0008DD3E0008E4
:10009000DD3E0008DD3E0008DD3E00086136000858
:1000A000DD3E0008DD3E0008DD3E0008DD3E0008C4
:1000B000A1280008DD3E00088D2C0008DD3E000868
:1000C000DD3E0008DD3E0008DD3E0008DD3E0008A4
:1000D000DD3E0008DD3E0008DD3E0008DD3E000894
:1000E000713A0008DD3E0008DD3E0008DD3E0008F4
:1000F000DD3E0008DD3E0008DD3E0008DD3E000874
:10010000DD3E0008DD3E0008C5290008DD3E000890
:10011000DD3E0008DD3E0008DD3E0008DD3E000853
:10012000DD3E0008DD3E0008DD3E0008DD3E000843
:10013000DD3E0008DD3E0008DD3E0008DD3E000833
:10014000DD3E0008DD3E0008DD3E0008DD3E000823
:10015000DD3E0008DD3E0008DD3E0008DD3E000813
:10016000DD3E0008DD3E0008DD3E0008DD3E000803
:10017000DD3E0008DD3E0008DD3E0008DD3E0008F3
:10018000DD3E000800000000DD3E0008DD3E000806
:10019000DD3E0008DD3E0008DD3E0008DD3E0008D3
:1001A000DD3E0008DD3E0008DD3E0008DD3E0008C3
:1001B000DD3E0008DD3E0008DD3E0008DD3E0008B3
:0801C000DD3E0008DD3E0008F1
:1001C80010B5054C237833B9044B13B10448AFF389
:1001D80000800123237010BD0000002000000000F3
:1001E800283F000808B5034B1BB103490348AFF388
:1001F800008008BD0000000004000020283F00081F
:1002080080B483B000AF0346FB7197F90730002B29
:100218000BDBFB7903F01F02074997F907305B09ED
:10022800012000FA02F241F8232000BF0C37BD4636
:100238005DF8047B704700BF00E100E080B483B044
:1002480000AF0346FB7197F90730002B12DBFB79EF
:1002580003F01F020A4997F907305B09012000FAE9
:1002680002F2203341F82320BFF34F8F00BFBFF3C2
:100278006F8F00BF00BF0C37BD465DF8047B704729
:1002880000E100E080B483B000AF03463960FB7141
:1002980097F90730002B0ADB3B68DAB20C4997F96B
:1002A80007301201D2B20B4483F800230AE03B68FE
:1002B800DAB20849FB7903F00F03043B1201D2B20A
:1002C8000B441A7600BF0C37BD465DF8047B7047B7
:1002D80000E100E000ED00E080B582B000AF9D4B8A
:1002E8005B6C9C4A43F4804353649A4B5B6C994A19
:1002F80043F080635364974B1B6B964A43F00103AA
:100308001363944B1B6B934A43F002031363914BA3
:100318001B6B904A43F0040313638E4B1B6B8D4A8F
:1003280043F0080313638B4B1B6B8A4A43F010039B
:100338001363884B1B6B874A43F020031363854B79
:100348001B6B844A43F400731363824B1B6B814A13
:1003580043F0400313637F4B1B6B7E4A43F4806377
:1003680013637C4B1B6B7B4A43F480731363794B99
:100378001B6C784A43F080031364764B5B6C754AB8
:1003880043F480235364734B1B6C724A43F001039C
:100398001364704B1B6C6F4A43F0020313646D4B7C
:1003A8001B6C6C4A43F0080313646A4B1B6C694A64
:1003B80043F004031364674B1B6C664A43F0805395
:1003C8001364644B1B68634A43F00103136000BF66
:1003D800604B1B6803F00203002BF9D05E4B1B68CF
:1003E8005D4A43F0050313605A4B5B68594A23F092
:1003F8003F035360574B5B68564A43F0080353600A
:10040800544B5A685349554B13404B60514B5B68EA
:10041800504A43F4D85353604E4B5B684D4A23F41B
:10042800403353604B4B9B684A4A43F410439360F4
:10043800484B5B68474A23F480035360454B1B686D
:10044800444A43F08073136000BF424B1B6803F0BB
:100458000073002BF9D03F4B9B683E4A43F00203E0
:10046800936000BF3B4B9B6803F00C03082BF9D14A
:10047800384BD3F88830374A43F4C053C2F8883031
:10048800344BD3F88830334A43F0A043C2F888305D
:10049800304BD3F88C302F4A43F48033C2F88C3079
:1004A8002C4BD3F88C302B4A23F40033C2F88C3011
:1004B800284B1B68274A43F08053136000BF254B25
:1004C8001B6803F00053002BF9D0254B1B68244A06
:1004D80043F400531360224B1B6A214A43F0007314
:1004E8001362204B4FF487629A621E4B6422DA62D1
:1004F8001C4B00225A631B4B9B691A4A43F060034A
:100508009361184B1B6A174A43F001031362154B9A
:100518001B68144A43F001031360134B1B68124A0B
:1005280043F400331360104B5B6A0F4A43F009032E
:1005380053620E4B6C229A620C4B2822DA620B4BE8
:1005480000225A63094B9B69084A43F06003936190
:100558000EE000BF00380240003C02403F80FFFF31
:10056800000802400004004000140240001C004043
:10057800A64B1B6AA54A43F001031362A34B1B68F1
:10058800A24A43F001031360A14B1B68A04A43F43D
:10059800004313609E4B1B6A9D4A43F0405313620D
:1005A8009C4B6C229A629B4BC822DA62994B0022C0
:1005B8005A63984B9B69974A43F060039361954B44
:1005C8001B6A944A43F001031362924B1B68914AD9
:1005D80043F0010313608E4B1B688D4A23F44023BC
:1005E80013608B4B1B688A4A43F480231360884B43
:1005F8009B69874A43F0007393614FF080434FF43F
:1006080087629A624FF08043834ADA624FF08043F0
:10061800DB684FF0804243F00103D36000211C20C7
:10062800FFF730FE1C20FFF7EBFD4FF080431B68FF
:100638004FF0804243F001031360784B784A9A6286
:10064800764B0122DA62754BDB68744A43F001038A
:10065800D3600F213220FFF715FE3220FFF7D0FDBF
:10066800704B6C229A626F4B41F28732DA626D4BA3
:10067800DB686C4A43F00103D3606A4B1B68694A24
:1006880043F0010313601E20FFF7BAFD664B9A681A
:10069800654940F2036313438B60634BDB68624A2E
:1006A80043F06303D360604B1B695F4A43F0040364
:1006B80013615D4B5B695C4A43F4A04353615B4B38
:1006C8001A685A4948F2351313430B60574BDA68D6
:1006D800564948F235131343CB60544B9B68534A31
:1006E80043F0100393600F210620FFF7CBFD0F2185
:1006F8000820FFF7C7FD0F210A20FFF7C3FD0F21D0
:100708001720FFF7BFFD0F212820FFF7BBFD0620AC
:10071800FFF776FD0820FFF773FD0A20FFF770FD4D
:100728001720FFF76DFD2820FFF76AFD62B600BFAE
:100738003F4B1B683E4A23F4407313603C4B1B68D5
:100748003B4A43F400731360394B9B68384A43F4BF
:1007580000739360364B1B6A354A23F48033136267
:10076800334B1B6A324A43F460231362314B1B68D4
:10077800304A23F0406313602E4B1B682D4A43F028
:10078800006313602B4B9B682A4A43F00063936015
:10079800284B5B6A274A23F480135362254B5B6A14
:1007A800244A43F460035362224B1B68214A23F016
:1007B800405313601F4B1B681E4A43F000531360DD
:1007C8001C4B9B681B4A43F000539360194B5B6AB0
:1007D800184A23F080735362164B5B6A154A43F03C
:1007E80060635362134B1B68124A23F04043136043
:1007F800104B1B680F4A43F0004313600D4B9B6876
:100808000C4A43F00043936016E000BF001C004010
:10081800001402400048014020145D00000C004014
:10082800C07A10000008004000380140003C014038
:100838000010024000240240984B5B6A974A23F05C
:1008480080535362954B5B6A944A43F0604353620A
:10085800924B1B68914A23F0407313608F4B1B68BF
:100868008E4A43F0007313608C4B9B688B4A43F0AD
:1008780000739360894B5B6A884A23F48033536220
:10088800864B5B6A854A43F460235362844B1B683A
:10089800834A23F440731360814B1B68804A43F4F6
:1008A800007313607E4B9B687D4A43F4007393602A
:1008B8007B4B1B6A7A4A23F480331362784B1B6A9A
:1008C800774A43F460231362754B1B68744A23F418
:1008D80040631360724B1B68714A43F400631360F2
:1008E8006F4B9B686E4A43F4006393606C4B1B6AC2
:1008F8006B4A23F480131362694B1B6A684A43F4FA
:1009080060031362664B1B68654A23F44053136007
:10091800634B1B68624A43F400531360604B9B6847
:100928005F4A43F4005393605D4B1B6A5C4A23F0B3
:10093800807313625A4B1B6A594A43F0606313620F
:10094800584B1B68574A23F040431360554B1B68AC
:10095800544A43F000431360524B9B68514A43F09A
:10096800004393604F4B5B6A4E4A23F080535362B7
:100978004C4B5B6A4B4A43F060435362474B1B68DE
:10098800464A23F003031360444B1B68434A43F071
:1009980002031360414B9B68404A43F00203936093
:1009A8003E4B1B6A3D4A23F0010313623B4B1B6A13
:1009B8003A4A43F00E031362384B1B68374A23F058
:1009C8000C031360354B1B68344A43F0080313606B
:1009D800324B9B68314A43F0080393602F4B1B6AE4
:1009E8002E4A23F0100313622C4B1B6A2B4A43F048
:1009F800E0031362294B1B68284A23F03003136075
:100A0800264B1B68254A43F020031360234B9B6841
:100A1800224A43F020039360204B1B6A1F4A23F4A9
:100A2800807313621D4B1B6A1C4A43F46063136294
:100A38001A4B1B68194A23F0C0031360174B1B6835
:100A4800164A43F080031360144B9B68134A43F023
:100A580080039360114B1B6A104A23F4805313627E
:100A68000E4B1B6A0D4A43F4604313620B4B1B6821
:100A78000A4A23F440731360084B1B68074A43F47F
:100A880000731360054B9B68044A43F4007393603A
:100A9800024B1B6A014A23F4803305E0002402401C
:100AA80000280240002002401362994B1B6A984AB2
:100AB80043F460231362964B1B68954A23F4406302
:100AC8001360934B1B68924A43F400631360904B86
:100AD8009B688F4A43F4006393608D4B1B6A8C4A72
:100AE80023F4801313628A4B1B6A894A43F4600318
:100AF8001362874B1B68864A23F440531360844B68
:100B08001B68834A43F400531360814B9B68804AF7
:100B180043F4005393607E4B1B6A7D4A23F0807335
:100B280013627B4B1B6A7A4A43F060631362784B0B
:100B38001B68774A23F440431360754B1B68744A5B
:100B480043F400431360724B9B68714A43F40043BB
:100B580093606F4B1B6A6E4A23F0805313626C4B91
:100B68001B6A6B4A43F060431362694B1B68684A0F
:100B780023F440331360664B1B68654A43F4003323
:100B88001360634B9B68624A43F400339360604B85
:100B98005B6A5F4A23F0010353625D4B5B6A5C4A00
:100BA80043F00E0353625A4B1B68594A23F44023FF
:100BB8001360574B1B68564A43F400231360544B89
:100BC8009B68534A43F400239360514B5B6A504A35
:100BD80023F0100353624E4B5B6A4D4A43F0E00327
:100BE80053624B4B1B684A4A23F440131360484B2B
:100BF8001B68474A43F400131360454B9B68444AFB
:100C080043F400139360424B5B6A414A23F48073B8
:100C180053623F4B5B6A3E4A43F4606353623C4B0A
:100C28001B683B4A23F440031360394B1B68384A5E
:100C380043F400031360364B9B68354A43F40003C2
:100C48009360334B5B6A324A23F480535362304BD0
:100C58005B6A2F4A43F4604353622E4B1B682D4A4C
:100C680023F0030313602B4B1B682A4A43F002034B
:100C78001360284B9B68274A43F002039360254B77
:100C88001B6A244A23F001031362224B1B6A214A80
:100C980043F00E0313621F4B1B681E4A23F00C031C
:100CA80013601C4B1B681B4A43F008031360194B65
:100CB8009B68184A43F008039360164B1B6A154A51
:100CC80023F010031362134B1B6A124A43F0E0032C
:100CD8001362104B1B680F4A23F0300313600D4B4F
:100CE8001B680C4A43F0200313600A4B9B68094AAF
:100CF80043F020039360074B1B6A064A23F4807372
:100D08001362044B1B6A034A43F4606304E000BFA8
:100D180000240240002802401362794B1B68784A7D
:100D280023F440231360764B1B68754A43F4002371
:100D38001360734B9B68724A43F400239360704BB3
:100D48005B6A6F4A23F0100353626D4B5B6A6C4A0F
:100D580043F0E00353626A4B1B68694A23F440136B
:100D68001360674B1B68664A43F400131360644BB7
:100D78009B68634A43F400139360614B5B6A604A63
:100D880023F4807353625E4B5B6A5D4A43F460638D
:100D980053625B4B1B685A4A23F040531360584B0D
:100DA8001B68574A43F000531360554B9B68544ADD
:100DB80043F000539360524B5B6A514A23F08073AF
:100DC80053624F4B5B6A4E4A43F0606353624D4B2C
:100DD8001B684C4A23F4404313604A4B1B68494A3A
:100DE80043F400431360474B9B68464A43F400436F
:100DF8009360444B1B6A434A23F080531362414B70
:100E08001B6A404A43F0604313623F4B28225A63EF
:100E18003B4B1B683A4A23F040731360384B1B68FE
:100E2800374A43F080731360354B9B69344A43F467
:100E380080539361354B9A683449354B13438B6023
:100E4800324BDA683149334B1343CB602F4B1A6965
:100E58002E49314B13430B612C4B5A692B492F4BAD
:100E680013434B612E4B5A682D492E4B13434B604D
:100E78002B4B9A682A492C4B13438B60284B022230
:100E88001A61274BDA69264940F205431343CB61BF
:100E9800234BFF225A61224BDA6A2149234B134321
:100EA800CB621F4B1B6B1E4A43F4887313631C4BA6
:100EB8001B681B4A43F001031360144B5B6A134A17
:100EC80043F002035362114B9B69104A43F001033C
:100ED800936100237B600AE0154A7B6832F813109F
:100EE800144A7B6822F813107B6801337B607B68A7
:100EF800B3F5FF3FF0DB00BF00BF0837BD4680BD3C
:100F08000020024000280240001C00400068014008
:100F180009001D000B002A001B010A021D012A02FC
:100F2800046901402B000A020C001B01830780079B
:100F380024CC0A081C00002080B49BB000AF786065
:100F4800396000237B6600233B667B68012B01D157
:100F580000237B667B68022B01D126237B667B6896
:100F6800032B01D156237B667B68042B01D17C239C
:100F78007B663B680A2B26D10023FB6520E0002313
:100F8800BB6517E0396E4B1C3B667B6E41F2F9324C
:100F98001A44F86D03461B011B1A5B011A44BB6D0A
:100FA8001344A04A32F811109F4A22F81310BB6D5F
:100FB8000133BB65BB6D202BE4DDFB6D0133FB65A5
:100FC800FB6D392BDBDD3B68002B26D100237B65CD
:100FD80020E000233B6517E0396E4B1C3B667B6EB7
:100FE80041F2F9321A44786D03461B011B1A5B0162
:100FF8001A443B6D13448D4A32F811108A4A22F87C
:1010080013103B6D01333B653B6D202BE4DD7B6D9D
:1010180001337B657B6D392BDBDD3B68012B26D1EA
:101028000023FB6420E00023BB6417E0396E4B1CEF
:101038003B667B6E41F2F9321A44F86C03461B0199
:101048001B1A5B011A44BB6C1344794A32F811101D
:10105800754A22F81310BB6C0133BB64BB6C202BA0
:10106800E4DDFB6C0133FB64FB6C392BDBDD3B6897
:10107800022B26D100237B6420E000233B6417E089
:10108800396E4B1C3B667B6E41F2F9321A44786C20
:1010980003461B011B1A5B011A443B6C1344654A47
:1010A80032F81110604A22F813103B6C01333B648C
:1010B8003B6C202BE4DD7B6C01337B647B6C392B30
:1010C800DBDD3B68032B26D10023FB6320E00023F4
:1010D800BB6317E0396E4B1C3B667B6E41F2F932FD
:1010E8001A44F86B03461B011B1A5B011A44BB6BBD
:1010F8001344514A32F811104B4A22F81310BB6BB3
:101108000133BB63BB6B202BE4DDFB6B0133FB635B
:10111800FB6B392BDBDD3B68042B26D100237B637B
:1011280020E000233B6317E0396E4B1C3B667B6E67
:1011380041F2F9321A44786B03461B011B1A5B0112
:101148001A443B6B13443D4A32F81110364A22F8D0
:1011580013103B6B01333B633B6B202BE4DD7B6B54
:1011680001337B637B6B392BDBDD3B68052B26D199
:101178000023FB6220E00023BB6217E0396E4B1CA2
:101188003B667B6E41F2F9321A44F86A03461B014A
:101198001B1A5B011A44BB6A1344294A32F811101E
:1011A800214A22F81310BB6A0133BB62BB6A202BA9
:1011B800E4DDFB6A0133FB62FB6A392BDBDD3B684C
:1011C800062B26D100237B6220E000233B6217E038
:1011D800396E4B1C3B667B6E41F2F9321A44786AD1
:1011E80003461B011B1A5B011A443B6A1344154A48
:1011F80032F811100C4A22F813103B6A01333B6293
:101208003B6A202BE4DD7B6A01337B627B6A392BE6
:10121800DBDD3B68072B38D10023FB6132E000237C
:10122800BB6129E06C4306081C000020E0B60008FA
:101238001C6C0008ECA70008F8980008344E000859
:10124800403F0008048A0008396E4B1C3B667B6EE1
:1012580041F2F9321A44F86903461B011B1A5B0173
:101268001A44BB6913443A4A32F81110394A22F831
:101278001310BB690133BB61BB69202BE4DDFB693B
:101288000133FB61FB69392BC9DD3B68082B26D18B
:1012980000237B6120E000233B6117E0396E4B1C83
:1012A8003B667B6E41F2F9321A44786903461B01AA
:1012B8001B1A5B011A443B691344274A32F8111080
:1012C800244A22F813103B6901333B613B69202B08
:1012D800E4DD7B6901337B617B69392BDBDD3B68AE
:1012E800092B26D10023FB6020E00023BB6017E018
:1012F800396E4B1C3B667B6E41F2F9321A44F86832
:1013080003461B011B1A5B011A44BB681344134AAA
:1013180032F811100F4A22F81310BB680133BB6072
:10132800BB68202BE4DDFB680133FB60FB68392BCD
:10133800DBDD0B4B074A9A620A4B5B6A094A43F0AA
:101348000203536200BF6C37BD465DF8047B7047EB
:10135800107B00081C000020D4C50008285D000888
:10136800046901400068014080B499B000AF78601A
:1013780039600023FB650023BB657B68012B01D125
:101388000023FB657B68022B01D16E23FB657B681C
:10139800032B01D1F623FB657B68042B02D14FF4A4
:1013A800B273FB653B68002B26D100237B6520E0E8
:1013B80000233B6517E0B96D4B1CBB65FB6D4AF21A
:1013C8000D521A44786D03461B011B1A5B011A441F
:1013D8003B6D1344A04A32F81110A04A22F81310AA
:1013E8003B6D01333B653B6D622BE4DD7B6D013367
:1013F8007B657B6DAD2BDBDD3B68012B26D10023A4
:10140800FB6420E00023BB6417E0B96D4B1CBB658F
:10141800FB6D4AF20D521A44F86C03461B011B1A65
:101428005B011A44BB6C13448D4A32F811108B4A85
:1014380022F81310BB6C0133BB64BB6C622BE4DD78
:10144800FB6C0133FB64FB6CAD2BDBDD3B68022BD3
:1014580026D100237B6420E000233B6417E0B96DAC
:101468004B1CBB65FB6D4AF20D521A44786C03465F
:101478001B011B1A5B011A443B6C1344794A32F86E
:101488001110764A22F813103B6C01333B643B6C15
:10149800622BE4DD7B6C01337B647B6CAD2BDBDD85
:1014A8003B68032B26D10023FB6320E00023BB63AA
:1014B80017E0B96D4B1CBB65FB6D4AF20D521A441F
:1014C800F86B03461B011B1A5B011A44BB6B1344E0
:1014D800654A32F81110614A22F81310BB6B0133C8
:1014E800BB63BB6B622BE4DDFB6B0133FB63FB6B04
:1014F800AD2BDBDD3B68042B26D100237B6320E08A
:1015080000233B6317E0B96D4B1CBB65FB6D4AF2CA
:101518000D521A44786B03461B011B1A5B011A44CF
:101528003B6B1344514A32F811104C4A22F81310FD
:101538003B6B01333B633B6B622BE4DD7B6B01331D
:101548007B637B6BAD2BDBDD3B68052B26D1002352
:10155800FB6220E00023BB6217E0B96D4B1CBB6542
:10156800FB6D4AF20D521A44F86A03461B011B1A16
:101578005B011A44BB6A13443D4A32F81110374ADA
:1015880022F81310BB6A0133BB62BB6A622BE4DD2D
:10159800FB6A0133FB62FB6AAD2BDBDD3B68062B84
:1015A80026D100237B6220E000233B6217E0B96D5F
:1015B8004B1CBB65FB6D4AF20D521A44786A034610
:1015C8001B011B1A5B011A443B6A1344294A32F86F
:1015D8001110224A22F813103B6A01333B623B6A1E
:1015E800622BE4DD7B6A01337B627B6AAD2BDBDD3A
:1015F8003B68072B26D10023FB6120E00023BB6159
:1016080017E0B96D4B1CBB65FB6D4AF20D521A44CD
:10161800F86903461B011B1A5B011A44BB69134492
:10162800154A32F811100D4A22F81310BB6901331C
:10163800BB61BB69622BE4DDFB690133FB61FB69BC
:10164800AD2BDBDD3B68082B39D100237B6133E010
:1016580000233B612AE000BF680905081C00002040
:1016680084680208D482040840FC03085C5B010813
:10167800C8D40008AC75030818EF0208B96D4B1CF4
:10168800BB65FB6D4AF20D521A44786903461B018B
:101698001B1A5B011A443B691344254A32F811109E
:1016A800244A22F813103B6901333B613B69622BE2
:1016B800E4DD7B6901337B617B69AD2BC8DD3B6869
:1016C800092B26D10023FB6020E00023BB6017E034
:1016D800B96D4B1CBB65FB6D4AF20D521A44F86894
:1016E80003461B011B1A5B011A44BB681344124AC8
:1016F80032F811100F4A22F81310BB680133BB608F
:10170800BB68622BE4DDFB680133FB60FB68AD2B33
:10171800DBDD0A4B074A9A62094B5B6A084A43F0C9
:101728000203536200BF6437BD465DF8047B70470F
:10173800FC8F05081C000020F0E101080469014045
:101748000068014080B4CDB000AF07F59873A3F5E9
:10175800967318600023C7F82C3107F59873A3F522
:1017680096731B68C82B40F09C800023C7F828316B
:1017780029E00023C7F824311CE0D7F82C21531C9A
:10178800C7F82C31D7F828110B461B015B1A5B01EF
:10179800194641F249330B44D7F824110B44D04978
:1017A80031F81210CF4A22F81310D7F82431013338
:1017B800C7F82431D7F82431202BDEDDD7F82831BB
:1017C8000133C7F82831D7F82831392BD1DD002368
:1017D800C7F82C310023C7F8203129E00023C7F8C7
:1017E8001C311CE0D7F82C21531CC7F82C31D7F832
:1017F80020110B461B015B1A5B01194641F223338A
:101808000B44D7F81C110B44B54931F81210B54AEE
:1018180022F81310D7F81C310133C7F81C31D7F858
:101828001C31202BDEDDD7F820310133C7F82031F9
:10183800D7F82031392BD1DD0023C7F82C3100230C
:10184800C7F8183129E00023C7F814311CE0D7F88D
:101858002C21531CC7F82C31D7F818110B461B0143
:101868005B1A5B01194641F2FD230B44D7F81411AA
:101878000B449B4931F812109A4A22F81310D7F8F2
:1018880014310133C7F81431D7F81431202BDEDDB9
:10189800D7F818310133C7F81831D7F81831392B70
:1018A800D1DD07F59873A3F596731B68002B40F0FC
:1018B8009C800023C7F8103129E00023C7F80C31B9
:1018C8001CE0D7F82C21531CC7F82C31D7F810117D
:1018D8000B461B015B1A5B01194641F249330B4465
:1018E800D7F80C110B44804931F812107D4A22F8C0
:1018F8001310D7F80C310133C7F80C31D7F80C3175
:10190800202BDEDDD7F810310133C7F81031D7F8B6
:101918001031392BD1DD0023C7F82C310023C7F84B
:10192800083129E00023C7F804311CE0D7F82C213E
:10193800531CC7F82C31D7F808110B461B015B1A4A
:101948005B01194641F223330B44D7F804110B44C9
:10195800634931F81210634A22F81310D7F804319A
:101968000133C7F80431D7F80431202BDEDDD7F86E
:1019780008310133C7F80831D7F80831392BD1DDE0
:101988000023C7F82C310023C7F8003129E00023D1
:10199800C7F8FC301CE0D7F82C21531CC7F82C31B1
:1019A800D7F800110B461B015B1A5B01194641F27F
:1019B800FD230B44D7F8FC100B44494931F81210A9
:1019C800484A22F81310D7F8FC300133C7F8FC3026
:1019D800D7F8FC30202BDEDDD7F800310133C7F80B
:1019E8000031D7F80031392BD1DD07F59873A3F50D
:1019F80096731B680A2B40F0A5800023C7F8F830BF
:101A080029E00023C7F8F4301CE0D7F82C21531C38
:101A1800C7F82C31D7F8F8100B461B015B1A5B018D
:101A2800194641F249330B44D7F8F4100B442E49B8
:101A380031F812102B4A22F81310D7F8F43001337A
:101A4800C7F8F430D7F8F430202BDEDDD7F8F830BB
:101A58000133C7F8F830D7F8F830392BD1DD002337
:101A6800C7F82C310023C7F8F03029E00023C7F865
:101A7800EC301CE0D7F82C21531CC7F82C31D7F8D0
:101A8800F0100B461B015B1A5B01194641F2233328
:101A98000B44D7F8EC100B44144931F81210114AD2
:101AA80022F81310D7F8EC300133C7F8EC30D7F828
:101AB800EC30202BDEDDD7F8F0300133C7F8F030FA
:101AC800D7F8F030392BD1DD0023C7F82C310023AB
:101AD800C7F8E83032E00023C7F8E43025E000BF5B
:101AE8006C4306081C000020249D06086052060866
:101AF800D7F82C21531CC7F82C31D7F8E8100B461F
:101B08001B015B1A5B01194641F2FD230B44D7F810
:101B1800E4100B44D24931F81210D24A22F81310BB
:101B2800D7F8E4300133C7F8E430D7F8E430202B95
:101B3800DEDDD7F8E8300133C7F8E830D7F8E83009
:101B4800392BC8DD07F59873A3F596731B68142B1A
:101B580040F09C800023C7F8E03029E00023C7F854
:101B6800DC301CE0D7F82C21531CC7F82C31D7F8EF
:101B7800E0100B461B015B1A5B01194641F2493321
:101B88000B44D7F8DC100B44B74931F81210B54AAA
:101B980022F81310D7F8DC300133C7F8DC30D7F857
:101BA800DC30202BDEDDD7F8E0300133C7F8E03039
:101BB800D7F8E030392BD1DD0023C7F82C310023CA
:101BC800C7F8D83029E00023C7F8D4301CE0D7F88C
:101BD8002C21531CC7F82C31D7F8D8100B461B0101
:101BE8005B1A5B01194641F223330B44D7F8D41032
:101BF8000B449E4931F812109A4A22F81310D7F86C
:101C0800D4300133C7F8D430D7F8D430202BDEDDF8
:101C1800D7F8D8300133C7F8D830D7F8D830392BAF
:101C2800D1DD0023C7F82C310023C7F8D03029E0D4
:101C38000023C7F8CC301CE0D7F82C21531CC7F878
:101C48002C31D7F8D0100B461B015B1A5B011946E3
:101C580041F2FD230B44D7F8CC100B44804931F8EE
:101C68001210804A22F81310D7F8CC300133C7F885
:101C7800CC30D7F8CC30202BDEDDD7F8D03001338C
:101C8800C7F8D030D7F8D030392BD1DD07F59873A5
:101C9800A3F596731B681E2B40F09C800023C7F8A1
:101CA800C83029E00023C7F8C4301CE0D7F82C213D
:101CB800531CC7F82C31D7F8C8100B461B015B1A08
:101CC8005B01194641F249330B44D7F8C4100B4461
:101CD800654931F81210634A22F81310D7F8C43056
:101CE8000133C7F8C430D7F8C430202BDEDDD7F86D
:101CF800C8300133C7F8C830D7F8C830392BD1DD20
:101D08000023C7F82C310023C7F8C03029E000238E
:101D1800C7F8BC301CE0D7F82C21531CC7F82C316D
:101D2800D7F8C0100B461B015B1A5B01194641F23C
:101D380023330B44D7F8BC100B444D4931F812102B
:101D4800484A22F81310D7F8BC300133C7F8BC3022
:101D5800D7F8BC30202BDEDDD7F8C0300133C7F808
:101D6800C030D7F8C030392BD1DD0023C7F82C316B
:101D78000023C7F8B83029E00023C7F8B4301CE0C6
:101D8800D7F82C21531CC7F82C31D7F8B8100B46BC
:101D98001B015B1A5B01194641F2FD230B44D7F87E
:101DA800B4100B442E4931F812102E4A22F81310A1
:101DB800D7F8B4300133C7F8B430D7F8B430202B93
:101DC800DEDDD7F8B8300133C7F8B830D7F8B83007
:101DD800392BD1DD07F59873A3F596731B68282B6B
:101DE80040F0A7800023C7F8B03029E00023C7F8E7
:101DF800AC301CE0D7F82C21531CC7F82C31D7F88D
:101E0800B0100B461B015B1A5B01194641F24933BE
:101E18000B44D7F8AC100B44134931F81210114A8F
:101E280022F81310D7F8AC300133C7F8AC30D7F824
:101E3800AC30202BDEDDD7F8B0300133C7F8B03036
:101E4800D7F8B030392BD1DD0023C7F82C31002367
:101E5800C7F8A83034E00023C7F8A43027E000BF53
:101E68006C4306081C000020249D0608308E0608D6
:101E78003C7F0608D7F82C21531CC7F82C31D7F81B
:101E8800A8100B461B015B1A5B01194641F223336C
:101E98000B44D7F8A4100B44C44931F81210C44AB3
:101EA80022F81310D7F8A4300133C7F8A430D7F8B4
:101EB800A430202BDEDDD7F8A8300133C7F8A830CE
:101EC800D7F8A830392BC6DD0023C7F82C310023FA
:101ED800C7F8A03029E00023C7F89C301CE0D7F8E9
:101EE8002C21531CC7F82C31D7F8A0100B461B0126
:101EF8005B1A5B01194641F2FD230B44D7F89C108D
:101F08000B44AC4931F81210A94A22F81310D7F83B
:101F18009C300133C7F89C30D7F89C30202BDEDD8D
:101F2800D7F8A0300133C7F8A030D7F8A030392B44
:101F3800D1DD07F59873A3F596731B68322B40F033
:101F48009C800023C7F8983029E00023C7F8943014
:101F58001CE0D7F82C21531CC7F82C31D7F898105F
:101F68000B461B015B1A5B01194641F249330B44CE
:101F7800D7F894100B44904931F812108C4A22F883
:101F88001310D7F894300133C7F89430D7F8943049
:101F9800202BDEDDD7F898300133C7F89830D7F812
:101FA8009830392BD1DD0023C7F82C310023C7F82E
:101FB800903029E00023C7F88C301CE0D7F82C219A
:101FC800531CC7F82C31D7F890100B461B015B1A2D
:101FD8005B01194641F223330B44D7F88C100B44AC
:101FE800764931F81210724A22F81310D7F88C305B
:101FF8000133C7F88C30D7F88C30202BDEDDD7F8CA
:1020080090300133C7F89030D7F89030392BD1DDB4
:102018000023C7F82C310023C7F8883029E00023B3
:10202800C7F884301CE0D7F82C21531CC7F82C3192
:10203800D7F888100B461B015B1A5B01194641F261
:10204800FD230B44D7F884100B445A4931F8121079
:10205800574A22F81310D7F884300133C7F8843070
:10206800D7F88430202BDEDDD7F888300133C7F865
:102078008830D7F88830392BD1DD07F59873A3F568
:1020880096731B683C2B40F083800023C7F8803090
:1020980024E00023FB6719E0D7F82C21531CC7F86C
:1020A8002C31D7F880100B461B015B1A5B011946CF
:1020B80041F249330B44F96F0B443F4931F8121090
:1020C8003B4A22F81310FB6F0133FB67FB6F202B91
:1020D800E2DDD7F880300133C7F88030D7F8803098
:1020E800392BD6DD0023C7F82C310023BB6721E04C
:1020F80000237B6718E0D7F82C21531CC7F82C3134
:10210800B96F0B461B015B1A5B01194641F2233379
:102118000B44796F0B442A4931F81210244A22F8EB
:1021280013107B6F01337B677B6F202BE3DDBB6F65
:102138000133BB67BB6F392BDADD0023C7F82C31BD
:1021480000233B6721E00023FB6618E0D7F82C2129
:10215800531CC7F82C31396F0B461B015B1A5B0106
:10216800194641F2FD230B44F96E0B44114931F82D
:1021780012100F4A22F81310FB6E0133FB66FB6E38
:10218800202BE3DD3B6F01333B673B6F392BDADDF7
:1021980007F59873A3F596731B68462B40F08A8061
:1021A8000023BB662DE000237B6624E08425060817
:1021B8001C0000206C430608249D0608901606089B
:1021C80048700608D7F82C21531CC7F82C31B96E73
:1021D8000B461B015B1A5B01194641F249330B445C
:1021E800796E0B44964931F81210964A22F813106A
:1021F8007B6E01337B667B6E202BE3DDBB6E013388
:10220800BB66BB6E392BCEDD0023C7F82C3100230B
:102218003B6621E00023FB6518E0D7F82C21531C0E
:10222800C7F82C31396E0B461B015B1A5B01194646
:1022380041F223330B44F96D0B44834931F81210F2
:10224800804A22F81310FB6D0133FB65FB6D202BD0
:10225800E3DD3B6E01333B663B6E392BDADD002351
:10226800C7F82C310023BB6521E000237B6518E00B
:10227800D7F82C21531CC7F82C31B96D0B461B011C
:102288005B1A5B01194641F2FD230B44796D0B443F
:102298006E4931F812106B4A22F813107B6D013326
:1022A8007B657B6D202BE3DDBB6D0133BB65BB6DAF
:1022B800392BDADD07F59873A3F596731B68502B55
:1022C8007DD100233B6521E00023FB6418E0D7F8AB
:1022D8002C21531CC7F82C31396D0B461B015B1A96
:1022E8005B01194641F249330B44F96C0B445449DC
:1022F80031F81210534A22F81310FB6C0133FB64B7
:10230800FB6C202BE3DD3B6D01333B653B6D392BCB
:10231800DADD0023C7F82C310023BB6421E0002359
:102328007B6418E0D7F82C21531CC7F82C31B96C02
:102338000B461B015B1A5B01194641F223330B4420
:10234800796C0B44424931F812103E4A22F81310B6
:102358007B6C01337B647B6C202BE3DDBB6C01332E
:10236800BB64BB6C392BDADD0023C7F82C310023A2
:102378003B6421E00023FB6318E0D7F82C21531CB1
:10238800C7F82C31396C0B461B015B1A5B011946E7
:1023980041F2FD230B44F96B0B442C4931F8121020
:1023A800284A22F81310FB6B0133FB63FB6B202BCD
:1023B800E3DD3B6C01333B643B6C392BDADD07F51D
:1023C8009873A3F596731B685A2B40F0D8800023A6
:1023D800BB6321E000237B6318E0D7F82C21531C52
:1023E800C7F82C31B96B0B461B015B1A5B01194608
:1023F80041F249330B44796B0B44114931F81210FF
:10240800104A22F813107B6B01337B637B6B202B04
:10241800E3DDBB6B0133BB63BB6B392BDADD002318
:10242800C7F82C3107F59873A3F5807300221A605A
:102438004BE007F59873A3F5827300221A6032E027
:10244800249D06081C000020546106086C430608F9
:1024580018AC0608D7F82C21531CC7F82C3107F5FF
:102468009873A3F5807319680B461B015B1A5B010F
:10247800194641F223330B4407F59871A1F582718F
:1024880009680B44C54931F81210C54A22F81310DF
:1024980007F59873A3F5827307F59872A2F582720F
:1024A800126801321A6007F59873A3F582731B68E6
:1024B800202BCFDD07F59873A3F5807307F5987285
:1024C800A2F58072126801321A6007F59873A3F5B5
:1024D80080731B68392BACDD0023C7F82C3107F556
:1024E8009873A3F5847300221A6041E007F5987386
:1024F800A3F5867300221A6028E0D7F82C21531C14
:10250800C7F82C3107F59873A3F5847319680B463F
:102518001B015B1A5B01194641F2FD230B4407F5C9
:102528009871A1F5867109680B449E4931F812101B
:102538009B4A22F8131007F59873A3F5867307F5DD
:102548009872A2F58672126801321A6007F59873BC
:10255800A3F586731B68202BCFDD07F59873A3F5C9
:10256800847307F59872A2F58472126801321A60B2
:1025780007F59873A3F584731B68392BB6DD07F547
:102588009873A3F596731B68642B40F0F68007F5E3
:102598009873A3F5887300221A6041E007F59873D1
:1025A800A3F58A7300221A6028E0D7F82C21531C5F
:1025B800C7F82C3107F59873A3F5887319680B468B
:1025C8001B015B1A5B01194641F249330B4407F5BD
:1025D8009871A1F58A7109680B44734931F8121092
:1025E8006F4A22F8131007F59873A3F58A7307F555
:1025F8009872A2F58A72126801321A6007F5987308
:10260800A3F58A731B68202BCFDD07F59873A3F514
:10261800887307F59872A2F58872126801321A60F9
:1026280007F59873A3F588731B68392BB6DD00236B
:10263800C7F82C3107F59873A3F58C7300221A603C
:1026480041E007F59873A3F58E7300221A6028E01D
:10265800D7F82C21531CC7F82C3107F59873A3F52C
:102668008C7319680B461B015B1A5B01194641F212
:1026780023330B4407F59871A1F58E7109680B4453
:10268800494931F81210464A22F8131007F5987391
:10269800A3F58E7307F59872A2F58E72126801324F
:1026A8001A6007F59873A3F58E731B68202BCFDD8E
:1026B80007F59873A3F58C7307F59872A2F58C72D9
:1026C800126801321A6007F59873A3F58C731B68BA
:1026D800392BB6DD0023C7F82C3107F59873A3F51D
:1026E800907300221A6041E007F59873A3F592737E
:1026F80000221A6028E0D7F82C21531CC7F82C3187
:1027080007F59873A3F5907319680B461B015B1ABC
:102718005B01194641F2FD230B4407F59871A1F5B9
:10272800927109680B44214931F812101C4A22F8A9
:10273800131007F59873A3F5927307F59872A2F52D
:102748009272126801321A6007F59873A3F59273B2
:102758001B68202BCFDD07F59873A3F5907307F559
:102768009872A2F59072126801321A6007F5987390
:10277800A3F590731B68392BB6DD0D4B084A9A6296
:102788000C4B5B6A0B4A43F00203536200BF07F528
:102798009A77BD465DF8047B704700BF7834060819
:1027A8001C0000206C430608249D06086052060899
:1027B800046901400068014080B489B000AF7860C6
:1027C8000023FB617B68002B26D00023BB611FE040
:1027D80000237B6116E0FA69531CFB61B9690B465B
:1027E8001B015B1A5B0119464FF2A9430B44796937
:1027F8000B44244931F81210234A22F813107B693C
:1028080001337B617B690E2BE5DDBB690133BB615D
:10281800BB69592BDCDD25E000233B611FE0002369
:10282800FB6016E0FA69531CFB6139690B461B0112
:102838005B1A5B0119464FF2A9430B44F9680B4434
:10284800124931F81210104A22F81310FB680133AC
:10285800FB60FB680E2BE5DD3B6901333B613B699F
:10286800592BDCDD0A4B084A9A620A4B5B6A094A13
:1028780043F00203536200BF2437BD465DF8047B72
:10288800704700BF0CBB06081C00002098C506084E
:10289800046901400068014080B500AF424B1B78D5
:1028A80003F00803002B74D0404B1B78002B64D135
:1028B8003F4B1B78002B4AD13E4B1B78002B27D16E
:1028C8003C4B09221A703A4B05221A70374B0922E1
:1028D8001A70394B1B78013BDAB2374B1A70364BFA
:1028E8001B7819460120FEF73FFD324B1B7819462D
:1028F8000220FEF739FD2E4B1B7819460320FEF700
:1029080033FD2A4B1B7819460420FEF72DFD40E0C5
:10291800274B05221A70254B09221A70254B1B7864
:10292800013BDAB2234B1A70224B1B78194602205E
:10293800FEF71AFD1E4B1B7819460320FEF714FDFF
:102948001A4B1B7819460420FEF70EFD21E0174BA1
:1029580009221A70164B1B78013BDAB2144B1A7015
:10296800134B1B7819460320FEF7FEFC0F4B1B7810
:1029780019460420FEF7F8FC0BE00C4B1B78013BD2
:10298800DAB20A4B1A70094B1B7819460420FEF775
:10299800EBFC4FF080431B694FF0804223F00103AA
:1029A800136100BF80BD00BF48FC032050FC03201A
:1029B80051FC032052FC032053FC032080B500AFD8
:1029C8009A4B1B680133994A1360984B1B68984AC5
:1029D800934231D1974B1B7803F00103002B2BD086
:1029E800924B00221A60934B1B7803F02003002BB4
:1029F8000FD10A210320FEF79FFA0A210420FEF7CF
:102A08009BFA8C4B1B7843F02003DAB2894B1A707F
:102A180012E0894B1B7819460320FEF78DFA874B85
:102A28001B7819460420FEF787FA824B1B7823F09F
:102A38002003DAB27F4B1A707C4B1B687C4A9342A6
:102A480031D17C4B1B7803F00203002B2BD0774B42
:102A580000221A60774B1B7803F01003002B0FD16C
:102A68000A210120FEF768FA0A210220FEF764FA1B
:102A7800704B1B7843F01003DAB26E4B1A7012E0F9
:102A88006F4B1B7819460120FEF756FA6D4B1B78E1
:102A980019460220FEF750FA664B1B7823F0100304
:102AA800DAB2644B1A70614B1B68614A934225D1B4
:102AB800604B1B7803F00403002B1FD05B4B0022F4
:102AC8001A605C4B1B7803F04003002B0AD1C82026
:102AD800FEF738FE574B1B7843F04003DAB2554BEC
:102AE8001A700BE0584B1B781846FEF72BFE514B1B
:102AF8001B7823F04003DAB24E4B1A704B4B1B681D
:102B0800524A93421FD14B4B1B7803F00803002B0A
:102B180019D0484B1B785BB2002B0ADA454B1B785F
:102B280003F07F03DAB2434B1A700020FFF744FE2C
:102B380009E0404B1B7863F07F03DAB23D4B1A7013
:102B48000120FFF739FE424B1B78002B63D1414B24
:102B58001B78002B5FD1404B1B78002B5BD13F4B80
:102B68001B78002B57D1334B1B7803F00803002B3D
:102B780051D03B4B00221A703A4B00221A703A4B44
:102B880000221A70394B00221A70394B00221A7031
:102B98000620FDF735FB0820FDF732FB0A20FDF77C
:102BA8002FFB1720FDF72CFB2820FDF729FB214BD5
:102BB8001B7823F00103DAB21E4B1A701D4B1B78E9
:102BC80023F00203DAB21B4B1A701A4B1B7823F05E
:102BD8000403DAB2174B1A70164B1B7823F008035C
:102BE800DAB2144B1A70234B00225A634FF0804319
:102BF8001B684FF0804223F0010313604FF08043BD
:102C080000225A621C4B9B691B4A43F00073936174
:102C18001A4B00221A60054B1B68194A934202D1CD
:102C2800024B00221A6000BF80BD00BF4CFC03208D
:102C3800A086010048FC032055FC032054FC032017
:102C480057FC032056FC032059FC0320F0490200DE
:102C580053FC032052FC032051FC032050FC0320AA
:102C68001CFC03201DFC03201EFC03201FFC03206A
:102C780020FC0320000400400014024044FC032010
:102C8800F149020080B487B000AF844B1B6903F0A0
:102C98000103002B00F0FC80804B1B697F4A23F066
:102CA800010313617E4B1B6903F40043002B22D1FF
:102CB8007B4B1B6903F400437B617A4B1B78DBB2C7
:102CC8001A467B69934203D0774B00221A6004E0CE
:102CD800754B1B680133744A1360734B1B68092BCF
:102CE80005D9724B01221A706F4B00221A607B695A
:102CF800DAB26C4B1A706E4B1B6903F00103002BA0
:102D080022D16B4B1B6903F001033B61694B1B78B4
:102D1800DBB21A463B69934203D0674B00221A6024
:102D280004E0654B1B680133634A1360624B1B6800
:102D3800092B05D9614B01221A705F4B00221A60DA
:102D48003B69DAB25B4B1A705D4B1B6903F00403F5
:102D5800002B22D15A4B1B6903F00403FB60594B2B
:102D68001B78DBB21A46FB68934203D0564B00220D
:102D78001A6004E0544B1B680133534A1360524BEA
:102D88001B68092B05D9514B01221A704E4B0022A2
:102D98001A60FB68DAB24B4B1A70454B1B6903F09B
:102DA8001003002B22D1424B1B6903F01003BB60B8
:102DB800474B1B78DBB21A46BB68934203D0454B9E
:102DC80000221A6004E0434B1B680133414A136038
:102DD800404B1B68092B05D93F4B01221A703D4B0C
:102DE80000221A60BB68DAB2394B1A70344B1B697F
:102DF80003F02003002B22D1314B1B6903F0200381
:102E08007B60364B1B78DBB21A467B68934203D053
:102E1800334B00221A6004E0314B1B680133304AFF
:102E280013602F4B1B68092B05D92E4B01221A70F2
:102E38002B4B00221A607B68DAB2284B1A702A4B97
:102E48001B6903F48073002B22D1274B1B6903F401
:102E580080733B60254B1B78DBB21A463B68934274
:102E680003D0234B00221A6004E0214B1B68013376
:102E78001F4A13601E4B1B68092B05D91D4B0122E5
:102E88001A701B4B00221A603B68DAB2174B1A7093
:102E980000BF1C37BD465DF8047B70470008004042
:102EA8000014024041FC032038FC032021FC0320CD
:102EB800000C02403FFC032030FC03201FFC0320D1
:102EC800001802403DFC032028FC03201DFC0320C1
:102ED80040FC032034FC032020FC03203EFC03209C
:102EE8002CFC03201EFC0320001002403CFC0320A5
:102EF80024FC03201CFC032080B584B000AF002311
:102F0800FB739D4B00225A629C4B1B6903F0010323
:102F1800002B1AD19A4B1B78DBB2012B15D1FB7B06
:102F28000133FB73964B00221A70964B64225A6346
:102F38000023BB6002E0BB680133BB60BB68924AF8
:102F48009342F8DD8F4B00225A63904B1B7803F0B5
:102F58000803002B40F0FB808C4B1B7803F0010327
:102F6800002B40F0F480894B1B7803F00203002B00
:102F780040F0ED80854B1B7803F00403002B40F0F4
:102F8800E680FB7B012B40F0E280814B9B69804A05
:102F980043F0007393617F4B1B78032B02D17D4B69
:102FA80000221A707B4B1B78022B42D1794B0322EB
:102FB8001A70794B00221A70784B00221A70784BDD
:102FC80000221A70774B00221A70774B00221A7071
:102FD800714B1A78754B1A70704B1A78744B1A70BB
:102FE8006F4B1A78734B1A706E4B1A78724B1A70B3
:102FF8006D4B1A78714B1A70674B1B781946012074
:10300800FDF79AFF654B1B7819460220FDF794FFE0
:10301800634B1B7819460320FDF78EFF614B1B7825
:1030280019460420FDF788FF5F4B1B781846FEF70A
:1030380089FB584B1B78012B42D1564B02221A7040
:10304800554B02221A70554B05221A70544B032215
:103058001A70544B00221A70534B64221A704E4B4C
:103068001A78524B1A704D4B1A78514B1A704C4BB8
:103078001A78504B1A704B4B1A784F4B1A704A4BB0
:103088001A784E4B1A70444B1B7819460120FDF7ED
:1030980053FF424B1B7819460220FDF74DFF404B6A
:1030A8001B7819460320FDF747FF3E4B1B7819464E
:1030B8000420FDF741FF3C4B1B781846FEF742FB06
:1030C800344B1B78002B42D1324B01221A70324B01
:1030D80000221A70314B01221A70314B00221A70EB
:1030E800304B00221A70304B32221A702A4B1A7851
:1030F8002E4B1A70294B1A782D4B1A70284B1A78B8
:103108002C4B1A70274B1A782B4B1A70264B1A78AF
:103118002A4B1A70204B1B7819460120FDF70CFF2B
:103128001E4B1B7819460220FDF706FF1C4B1B7827
:1031380019460320FDF700FF1A4B1B781946042097
:10314800FDF7FAFE184B1B781846FEF7FBFA00232A
:103158007B6002E07B6801337B607B68184A93429E
:10316800F8DD184B5B69174A43F00103536100BF50
:103178001037BD4680BD00BF00080040000C02406B
:103188001FFC0320004801403F0D030048FC0320BA
:10319800001402405AFC032057FC032056FC03206D
:1031A80055FC032054FC032059FC032053FC032046
:1031B80052FC032051FC032050FC032058FC032040
:1031C80080EE3600003C014080B584B000AF00239B
:1031D800FB73684B00225A62674B1B6903F00403B8
:1031E800002B1AD1654B1B78DBB2012B15D1644B30
:1031F80064225A630023BB6002E0BB680133BB60F2
:10320800BB68604A9342F8DD5D4B00225A63FB7B42
:103218000133FB73594B00221A70FB7B012B40F0E2
:103228009480594B00225A63584B9B69574A43F084
:10323800007393614FF080431B684FF0804223F086
:10324800010313604FF0804300225A62504B1B78F1
:1032580023F00103DAB24E4B1A704D4B1B7823F062
:103268000203DAB24A4B1A70494B1B7823F0040365
:10327800DAB2474B1A70464B1B7823F00803DAB2D0
:10328800434B1A70424B1B7803F07F03DAB2404B72
:103298001A700120FFF790FA3E4B00221A703E4B3D
:1032A80000221A703D4B00221A603D4B00221A7012
:1032B8003C4B00221A703C4B00221A703B4B0022F8
:1032C8001A703B4B00221A703A4B00221A703A4B84
:1032D80000221A70394B00221A70394B00221A70DA
:1032E800384B00221A70334B00221A70002101203B
:1032F800FEF73AF800210220FEF736F800210320F5
:10330800FEF732F800210420FEF72EF800210120F4
:10331800FDF712FE00210220FDF70EFE002103201A
:10332800FDF70AFE00210420FDF706FE0020FEF747
:1033380009FA0120FFF740FA0620FCF761FF0A208E
:10334800FCF75EFF1720FCF75BFF00237B6002E0C1
:103358007B6801337B607B681B4A9342F8DD1B4B1B
:103368005B691A4A43F00403536100BF1037BD4636
:1033780080BD00BF00080040001802401DFC03206B
:10338800004801403F0D03000004004000140240C3
:1033980048FC03201FFC032020FC032044FC0320DE
:1033A80058FC032050FC032051FC032052FC03204E
:1033B80053FC032059FC032054FC032055FC032034
:1033C80056FC032057FC032080EE3600003C0140E9
:1033D80080B586B000AF924B5B6903F01003002BF9
:1033E80000F019810023FB758E4B00225A628E4B28
:1033F8001B6903F01003002B1AD18C4B1B78DBB22E
:10340800012B15D1FB7D0133FB75884B00221A7007
:10341800874B64225A6300233B6102E03B69013316
:103428003B613B69834A9342F8DD814B00225A6332
:10343800FB7D012B40F0DF80D6E07F4B1B7803F04B
:103448000203002B55D07D4B1B781A467C4B1B780A
:103458001344002B4DD07A4B1B78002B15D1774B9A
:103468001B78013BDAB2754B1A70754B09221A703A
:10347800724B1B7819460120FDF75EFD704B1B78D7
:1034880019460220FDF758FD33E06D4B1B78002BE1
:1034980013D16A4B1B78002B09D0684B1B78013B72
:1034A800DAB2664B1A70664B09221A7005E0644B53
:1034B80000221A70614B00221A70614B1B78013B85
:1034C800DAB25F4B1A705D4B1B7819460120FDF785
:1034D80033FD5B4B1B7819460220FDF72DFD0023B9
:1034E800FB6002E0FB680133FB60FB68554A9342CE
:1034F800F8DD514B1B7803F00103002B55D0524BDC
:103508001B781A46514B1B781344002B4DD04E4B59
:103518001B78002B15D14D4B1B78013BDAB24B4B76
:103528001A70494B09221A70484B1B781946032018
:10353800FDF702FD444B1B7819460420FDF7FCFCFF
:1035480033E0414B1B78002B13D1404B1B78002BE9
:1035580009D03E4B1B78013BDAB23C4B1A703A4B10
:1035680009221A7005E0384B00221A70374B0022E6
:103578001A70354B1B78013BDAB2334B1A70334B58
:103588001B7819460320FDF7D7FC2F4B1B781946EB
:103598000420FDF7D1FC0023BB6002E0BB680133C7
:1035A800BB60BB68274A9342F8DD234B1B7803F0C6
:1035B8000403002B18D0264B1B78002B14D0244B67
:1035C8001B780A3BDAB2224B1A70214B1B7818463B
:1035D800FEF7B8F800237B6002E07B6801337B606C
:1035E8007B68184A9342F8DD0F4B1B6903F0100300
:1035F800002B3FF422AF00233B6002E03B6801331D
:103608003B603B68134A9342F8DD054B5B69044A0B
:1036180043F01003536100BF1837BD4680BD00BF9B
:10362800003C014000080040000C024020FC032040
:10363800004801403F0D030048FC032057FC0320CD
:1036480056FC032060E3160054FC032055FC0320BD
:1036580059FC032080EE360080B58AB000AF8F4B4E
:103668005B6903F02003002B00F0E5808C4B0022FF
:103678005A62002387F827308A4B1B6903F020031E
:10368800002B1CD1884B1B78DBB2012B17D197F884
:103698002730013387F82730834B00221A70834B79
:1036A80064225A6300233B6202E03B6A01333B62B7
:1036B8003B6A7F4A9342F8DD7C4B00225A637D4B7C
:1036C8001B7803F00803002B0CBF01230023DAB298
:1036D80097F82730012B0CBF01230023DBB21340DE
:1036E800DBB2002B00F09780724B1B7803F00703C6
:1036F800022B49D0022B6FDC002B02D0012B14D0F7
:103708006AE06C4B1B7843F00103DAB2694B1A701C
:10371800694B1B7819460320FDF70EFC674B1B7895
:1037280019460420FDF708FC75E0624B1B7843F04E
:103738000203DAB25F4B1A705E4B1B7823F0010369
:10374800DAB25C4B1A705C4B1B7819460320FDF704
:10375800F3FB5A4B1B7819460420FDF7EDFB574B3A
:103768001A78574B1A70544B1A78564B1A70564B96
:103778001B7819460120FDF7DFFB544B1B781946CF
:103788000220FDF7D9FB46E04A4B1B7843F00403BF
:10379800DAB2484B1A70474B1B7823F00203DAB2AF
:1037A800444B1A70484B1B7819460120FDF7C4FB9F
:1037B800464B1B7819460220FDF7BEFB434B1A788F
:1037C800434B1A70404B1A78424B1A70424B1B7885
:1037D8001846FDF7B7FF1EE0364B1B7823F00103B0
:1037E800DAB2344B1A70334B1B7823F00203DAB287
:1037F800304B1A702F4B1B7823F00403DAB22D4B91
:103808001A70354B1A78354B1A70334B1B7818469B
:10381800FDF798FF00BF0023FB6102E0FB6901335D
:10382800FB61FB692E4A9342F8DD1C4B5B691B4A1E
:1038380043F020035361194B5B6903F48073002B39
:1038480000F0F880164B00225A620023FB76254BC5
:103858001B6903F48073002B1AD1234B1B78DBB24E
:10386800012B15D1FB7E0133FB761F4B00221A700A
:103878000E4B64225A6300237B6102E07B690133AB
:103888007B617B690A4A9342F8DD084B00225A6340
:10389800FB7E012B40F0BE80B5E000BF003C01403C
:1038A80000080040001802401EFC032000480140A8
:1038B8003F0D030048FC032055FC032054FC032063
:1038C80050FC032051FC032057FC032056FC032026
:1038D80052FC032053FC032059FC032058FC03200E
:1038E80080EE3600001002401CFC0320534B1B786E
:1038F80003F00203002B30D0514B1B781A46514B72
:103908001B781344122B28D04E4B1B780133DAB2A4
:103918004C4B1A704B4B1B780A2B08D1484B1B7821
:103928000133DAB2464B1A70464B00221A70444BE8
:103938001B7819460120FDF7FFFA424B1B78194600
:103948000220FDF7F9FA00233B6102E03B690133ED
:103958003B613B693C4A9342F8DD384B1B7803F0E6
:103968000103002B30D0394B1B781A46384B1B7893
:103978001344122B28D0354B1B780133DAB2334B62
:103988001A70324B1B780A2B08D1314B1B78013344
:10399800DAB22F4B1A702D4B00221A702C4B1B7861
:1039A80019460320FDF7C8FA284B1B78194604204E
:1039B800FDF7C2FA0023FB6002E0FB680133FB60FD
:1039C800FB68244A9342F8DD1C4B1B7803F0040380
:1039D800002B18D0204B1B78642B14D01E4B1B785F
:1039E8000A33DAB21C4B1A701B4B1B781846FDF7CA
:1039F800A9FE0023BB6002E0BB680133BB60BB6863
:103A0800144A9342F8DD154B1B6903F48073002BAD
:103A18003FF46CAF00237B6002E07B6801337B607E
:103A28007B680F4A9342F8DD0E4B5B690D4A43F4FD
:103A38008073536100BF2837BD4680BD48FC032012
:103A480057FC032056FC032040420F0054FC03207F
:103A580055FC032060E3160059FC032000100240C7
:103A680080EE3600003C014080B582B000AF6A4B62
:103A780000225A62694B1B6903F40043002B1CD1D6
:103A8800674B1B78DBB2012B17D1664B1B680133E0
:103A9800644A1360624B00221A70634B64225A63B3
:103AA80000237B6002E07B6801337B607B685F4AB0
:103AB8009342F8DD5C4B00225A635D4B1B7803F0A0
:103AC8000803002B5ED15A4B1B7803F00103002B2F
:103AD80058D1574B1B7803F00203002B52D1544B9B
:103AE8001B7803F00403002B4CD14E4B1B68012BB1
:103AF80048D14F4B1B7843F00803DAB24C4B1A708D
:103B08004B4B1B7863F07F03DAB2494B1A70494B71
:103B18001A78494B5A634FF0804300225A624FF09B
:103B280080431B684FF0804243F0010313603B4B16
:103B38009B693A4A43F400739361404B1B781946DA
:103B48000120FDF711FC3E4B1B7819460220FDF7BA
:103B58000BFC3C4B1B7819460320FDF705FC3A4B40
:103B68001B7819460420FDF7FFFB384B00221A701A
:103B78000620FCF763FB0A20FCF760FB1720FCF724
:103B88005DFB34E04FF080431B684FF0804223F028
:103B9800010313604FF0804300225A621F4B9B6958
:103BA8001E4A43F000739361234B00225A63204B53
:103BB8001B7823F00803DAB21D4B1A701C4B1B78D4
:103BC80003F07F03DAB21A4B1A700120FEF7F4FDF6
:103BD800144B00221A600620FCF712FB0820FCF7A1
:103BE8000FFB0A20FCF70CFB1720FCF709FB00234E
:103BF8003B6002E03B6801333B603B68144A9342F8
:103C0800F8DD144B5B69134A43F40043536100BF6A
:103C18000837BD4680BD00BF0008004000140240C0
:103C280021FC032044FC0320004801403F0D030011
:103C380048FC032058FC03200004004053FC0320E8
:103C480052FC032051FC032050FC03205AFC0320A3
:103C580080EE3600003C014080B582B000AFFCF732
:103C68003BFB764B764A9A62764B5B6A754A43F021
:103C78000203536200237B6002E07B6801337B60B0
:103C88007B68714A9342F8DD6C4B704A9A626D4BBF
:103C98005B6A6C4A43F0020353626D4B1B7819460A
:103CA8000120FDF761FB6B4B1B7819460220FDF7DD
:103CB8005BFB694B1B7819460320FDF755FB674BE7
:103CC8001B7819460420FDF74FFB614B1B781946FA
:103CD8000120FDF731F95F4B1B7819460220FDF7EB
:103CE8002BF95D4B1B7819460320FDF725F95B4B33
:103CF8001B7819460420FDF71FF9594B1B78184605
:103D0800FDF720FD574B1B68564A43F0010313602B
:103D18004FF080431B684FF0804223F0010313608B
:103D28004FF0804300225A624F4B1B7823F0010367
:103D3800DAB24D4B1A704C4B1B7823F00203DAB2FF
:103D4800494B1A70484B1B7823F00403DAB2464BF0
:103D58001A70454B1B7823F00803DAB2424B1A70ED
:103D6800414B1B7803F07F03DAB23F4B1A703F4B8D
:103D780000225A634FF080431B684FF0804223F0C3
:103D8800010313604FF0804300225A62344B002233
:103D98001A70324B00221A702F4B00221A702D4BCA
:103DA80000221A702A4B00221A70314B00221A7016
:103DB800304B00221A70304B00221A702F4B002211
:103DC8001A702F4B00221A70294B00221A700021FA
:103DD8000120FDF7C9FA00210220FDF7C5FA0021EC
:103DE8000320FDF7C1FA00210420FDF7BDFA0021E8
:103DF8000120FDF7A1F800210220FDF79DF8002120
:103E08000320FDF799F800210420FDF795F800201C
:103E1800FDF798FC0120FEF7CFFC0620FCF7F0F92F
:103E28000820FCF7EDF90A20FCF7EAF91720FCF75F
:103E3800E7F92820FCF7E4F9FEE700BF0469014030
:103E480024D0060800680140404B4C0024CC0A08E6
:103E580053FC032052FC032051FC032050FC032098
:103E680058FC0320000C004048FC032000040040DC
:103E780059FC032054FC032055FC032056FC032066
:103E880057FC03200D488546AFF300800C480D49C8
:103E98000D4A002302E0D458C4500433C4188C429D
:103EA800F9D30A4A0A4C002301E013600432A24203
:103EB800FBD300F011F8FFF7CFFEFEE70000052066
:103EC80000000020000000202CC80E080000002080
:103ED8005CFC0320FEE7000070B50D4D0D4C641B23
:103EE800A4100026A64209D10B4D0C4C00F018F87E
:103EF800641BA4100026A64205D170BD55F8043BEA
:103F080098470136EEE755F8043B98470136F2E743
:103F180024C80E0824C80E0824C80E0828C80E088D
:103F2800F8B500BFF8BC08BC9E467047F8B500BF9E
:083F3800F8BC08BC9E4670476E
:103F4000FF07FF07FF07FF07FF07FF07FF07FF0741
:103F50000000000000000000000000000000000061
:103F60000000000000000000000000000000000051
:103F70000000FF07FF07FF07FF07FF07FF07FF0717
:103F8000FF07FF07FF07FF07FF07FF07FF07FF0701
:103F90000000E4E8E4E8E4E8E4E8E4E8E4E8E4E88D
:103FA000E4E8E4E8E4E8E4E8E4E8E4E8E4E8E4E8B1
:103FB000E4E8E4E80000FF07FF07FF07FF07FF074B
:103FC000FF07FF07FF07FF07FF07FF07FF07FF07C1
:103FD0000000E4E8E4E8E4E8E4E8E4E8E4E8E4E84D
:103FE000E4E8E4E8E4E8E4E8E4E8E4E8E4E8E4E871
:103FF000E4E8E4E8E4E8E4E80000FF07FF07FF077F
:10400000FF07FF07FF07FF07FF07FF07FF07FF0780
:104010000000E4E8E4E8E4E8E4E8E4E8E4E8E4E80C
:10402000E4E8E4E8E4E8E4E8E4E8E4E8E4E8E4E830
:10403000E4E8E4E8E4E8E4E8E4E8E4E80000FF07B2
:10404000FF07FF07FF07FF07FF07FF07FF07FF0740
:10405000FF070000E4E8E4E8E4E8E4E8E4E8E4E892
:10406000E4E8E4E8E4E8E4E8E4E8E4E8E4E8E4E8F0
:10407000E4E8E4E8E4E8E4E8E4E8E4E8E4E80000AC
:10408000FF07FF07FF07FF07FF07FF07FF07FF0700
:1040900000000000FF070000E4E8E4E8E4E8E4E8EA
:1040A000E4E8E4E8E4E8E4E8E4E8E4E8E4E8E4E8B0
:1040B000E4E8E4E8E4E8E4E8E4E8E4E8E4E800006C
:1040C000FF07FF07FF07FF07FF07FF07FF07FF07C0
:1040D0000000E4E8E4E80000FF070000E4E8E4E8AA
:1040E000E4E8E4E8E4E8E4E8E4E8E4E8E4E8E4E870
:1040F000E4E8E4E8E4E8E4E8E4E8E4E8E4E800002C
:10410000FF07FF07FF07FF07FF07FF07FF07FF077F
:104110000000E4E8E4E8E4E8E4E80000FF07000069
:10412000000000000000000000000000000000008F
:10413000000000000000000000000000000000007F
:10414000FF07FF07FF07FF07FF07FF07FF07FF073F
:104150000000E4E8E4E8E4E8E4E8E4E8E4E8000097
:10416000FF07FF07FF07FF07FF07FF07FF07FF071F
:10417000FF07FF07FF07FF07FF07FF07FF07FF070F
:10418000FF07FF07FF07FF07FF07FF07FF07FF07FF
:10419000FF070000E4E8E4E8E4E8E4E8E4E8E4E851
:1041A0000000FF07FF07FF07FF07FF07FF07FF07E5
:1041B000FF07FF07FF07FF07FF07FF07FF07FF07CF
:1041C000FF07FF07FF07FF07FF07FF07FF07FF07BF
:1041D000FF07FF070000E4E8E4E8E4E8E4E8E4E8D7
:1041E000E4E80000FF07FF07FF07FF07FF07FF07DF
:1041F000FF07FF07FF07FF07FF07FF07FF07FF078F
:10420000FF07FF07FF07FF07FF07FF07FF07FF077E
:10421000FF07FF07FF070000E4E8E4E8E4E8E4E85C
:10422000E4E8E4E80000FF07FF07FF07FF07FF07D8
:10423000FF07FF07FF07FF07FF07FF07FF07FF074E
:10424000FF07FF07FF07FF07FF07FF07FF07FF073E
:10425000FF07FF07FF07FF070000E4E8E4E8E4E8E2
:10426000E4E8E4E8E4E80000FF07FF07FF07FF07D2
:10427000FF07FF07FF07FF07FF07FF07FF07FF070E
:10428000FF07FF07FF07FF07FF07FF07FF07FF07FE
:10429000FF07FF07FF07FF07FF070000E4E8E4E868
:1042A000E4E8E4E8E4E8E4E80000FF07FF07FF07CC
:1042B000FF07FF07FF07FF07FF07FF07FF07FF07CE
:1042C000FF07FF07FF07FF07FF07FF07FF07FF07BE
:1042D000FF07FF07FF07FF07FF07FF070000E4E8EE
:1042E000E4E8E4E8E4E8E4E8E4E80000FF07FF07C6
:1042F000FF07FF07FF07FF07FF07FF07FF07FF078E
:10430000FF07FF07FF07FF07FF07FF07FF07FF077D
:10431000FF07FF07FF07FF07FF07FF07FF07000073
:10432000E4E8E4E8E4E8E4E8E4E8E4E80000FF07BF
:10433000FF07FF07FF07FF07FF07FF07FF07FF074D
:10434000FF07FF07FF07FF07FF07FF07FF07FF073D
:10435000FF07FF07FF07FF07FF07FF07FF07FF072D
:104360000000E4E8E4E8E4E8E4E8E4E8E4E8000085
:10437000FF07FF07FF07FF07FF07FF07FF07FF070D
:10438000FF07FF07FF07FF07FF07FF07FF07FF07FD
:10439000FF07FF07FF07FF07FF07FF07FF07FF07ED
:1043A000FF070000E4E8E4E8E4E8E4E8E4E8E4E83F
:1043B0000000FF07FF07FF07FF07FF07FF07FF07D3
:1043C000FF07FF07FF07FF07FF07FF07FF07FF07BD
:1043D000FF07FF07FF07FF07FF07FF07FF07FF07AD
:1043E000FF07FF070000E4E8E4E8E4E8E4E8E4E8C5
:1043F000E4E80000FF07FF07FF07FF07FF07FF07CD
:10440000FF07FF07FF07FF07FF07FF07FF07FF077C
:10441000FF07FF07FF07FF07FF07FF07FF07FF076C
:10442000FF07FF07FF070000E4E8E4E8E4E8E4E84A
:10443000E4E8E4E80000FF07FF07FF07FF07FF07C6
:10444000FF07FF07FF07FF07FF07FF07FF07FF073C
:10445000FF07FF07FF07FF07FF07FF07FF07FF072C
:10446000FF07FF07FF07FF070000E4E8E4E8E4E8D0
:10447000E4E8E4E8E4E80000FF07FF07FF07FF07C0
:10448000FF07FF07FF07FF07FF07FF07FF07FF07FC
:10449000FF07FF07FF07FF07FF07FF07FF07FF07EC
:1044A000FF07FF07FF07FF07FF070000E4E8E4E856
:1044B000E4E8E4E8E4E8E4E80000FF07FF07FF07BA
:1044C000FF07FF07FF07FF07FF07FF07FF07FF07BC
:1044D000FF07FF07FF07FF07FF07FF07FF07FF07AC
:1044E000FF07FF07FF07FF07FF07FF070000E4E8DC
:1044F000E4E8E4E8E4E8E4E8E4E80000FF07FF07B4
:10450000FF07FF07FF07FF07FF07FF07FF07FF077B
:10451000FF07FF07FF07FF07FF07FF07FF07FF076B
:10452000FF07FF07FF07FF07FF07FF07FF07000061
:10453000E4E8E4E8E4E8E4E8E4E8E4E80000FF07AD
:10454000FF07FF07FF07FF07FF07FF07FF07FF073B
:10455000FF07FF07FF07FF07FF07FF07FF07FF072B
:10456000FF07FF07FF07FF07FF07FF07FF07FF071B
:104570000000E4E8E4E8E4E8E4E8E4E8E4E8000073
:10458000FF07FF07FF07FF07FF07FF07FF07FF07FB
:10459000FF07FF07FF07FF07FF07FF07FF07FF07EB
:1045A000FF07FF07FF07FF07FF07FF07FF07FF07DB
:1045B000FF07FF070000E4E8E4E8E4E8E4E80000BF
:1045C000FF070000000000000000000000000000E5
:1045D00000000000000000000000000000000000DB
:1045E00000000000FF07FF07FF07FF07FF07FF07A7
:1045F000FF07FF07FF07FF070000E4E8E4E800000B
:10460000FF070000E4E8E4E8E4E8E4E8E4E8E4E8DC
:10461000E4E8E4E8E4E8E4E8E4E8E4E8E4E8E4E83A
:10462000E4E8E4E8E4E80000FF07FF07FF07FF070E
:10463000FF07FF07FF07FF07FF07FF070000000056
:10464000FF070000E4E8E4E8E4E8E4E8E4E8E4E89C
:10465000E4E8E4E8E4E8E4E8E4E8E4E8E4E8E4E8FA
:10466000E4E8E4E8E4E8E4E8E4E80000FF07FF0742
:10467000FF07FF07FF07FF07FF07FF07FF07FF070A
:10468000FF070000E4E8E4E8E4E8E4E8E4E8E4E85C
:10469000E4E8E4E8E4E8E4E8E4E8E4E8E4E8E4E8BA
:1046A000E4E8E4E8E4E8E4E8E4E8E4E8E4E8000076
:1046B000FF07FF07FF07FF07FF07FF07FF07FF07CA
:1046C000FF07FF070000E4E8E4E8E4E8E4E8E4E8E2
:1046D000E4E8E4E8E4E8E4E8E4E8E4E8E4E8E4E87A
:1046E000E4E8E4E8E4E8E4E8E4E8E4E8E4E8E4E86A
:1046F0000000FF07FF07FF07FF07FF07FF07FF0790
:10470000FF07FF07FF07FF070000E4E8E4E8E4E82D
:10471000E4E8E4E8E4E8E4E8E4E8E4E8E4E8E4E839
:10472000E4E8E4E8E4E8E4E8E4E8E4E8E4E8E4E829
:104730000000FF0700000000FF07FF07FF07FF075B
:10474000FF07FF07FF07FF07FF07FF070000E4E879
:10475000E4E8E4E8E4E8E4E8E4E8E4E8E4E8E4E8F9
:10476000E4E8E4E8E4E8E4E8E4E8E4E8E4E8E4E8E9
:104770000000FF070000E4E8E4E80000FF07FF078F
:10478000FF07FF07FF07FF07FF07FF07FF07FF07F9
:104790000000000000000000000000000000000019
:1047A0000000000000000000000000000000000009
:1047B0000000FF070000E4E8E4E8E4E8E4E80000C3
:1047C000FF07FF07FF07FF07FF07FF07FF07FF07B9
:1047D000FF07FF07FF07FF07FF07FF07FF07FF07A9
:1047E000FF07FF07FF07FF07FF07FF07FF07FF0799
:1047F000FF07FF070000E4E8E4E8E4E8E4E8E4E8B1
:10480000E4E80000FF07FF07FF07FF07FF07FF07B8
:10481000FF07FF07FF07FF07FF07FF07FF07FF0768
:10482000FF07FF07FF07FF07FF07FF07FF07FF0758
:10483000FF07FF07FF070000E4E8E4E8E4E8E4E836
:10484000E4E8E4E80000FF07FF07FF07FF07FF07B2
:10485000FF07FF07FF07FF07FF07FF07FF07FF0728
:10486000FF07FF07FF07FF07FF07FF07FF07FF0718
:10487000FF07FF07FF07FF070000E4E8E4E8E4E8BC
:10488000E4E8E4E8E4E80000FF07FF07FF07FF07AC
:10489000FF07FF07FF07FF07FF07FF07FF07FF07E8
:1048A000FF07FF07FF07FF07FF07FF07FF07FF07D8
:1048B000FF07FF07FF07FF07FF070000E4E8E4E842
:1048C000E4E8E4E8E4E8E4E80000FF07FF07FF07A6
:1048D000FF07FF07FF07FF07FF07FF07FF07FF07A8
:1048E000FF07FF07FF07FF07FF07FF07FF07FF0798
:1048F000FF07FF07FF07FF07FF07FF070000E4E8C8
:10490000E4E8E4E8E4E8E4E8E4E80000FF07FF079F
:10491000FF07FF07FF07FF07FF07FF07FF07FF0767
:10492000FF07FF07FF07FF07FF07FF07FF07FF0757
:10493000FF07FF07FF07FF07FF07FF07FF0700004D
:10494000E4E8E4E8E4E8E4E8E4E8E4E80000FF0799
:10495000FF07FF07FF07FF07FF07FF07FF07FF0727
:10496000FF07FF07FF07FF07FF07FF07FF07FF0717
:10497000FF07FF07FF07FF07FF07FF07FF07FF0707
:104980000000E4E8E4E8E4E8E4E8E4E8E4E800005F
:10499000FF07FF07FF07FF07FF07FF07FF07FF07E7
:1049A000FF07FF07FF07FF07FF07FF07FF07FF07D7
:1049B000FF07FF07FF07FF07FF07FF07FF07FF07C7
:1049C000FF070000E4E8E4E8E4E8E4E8E4E8E4E819
:1049D0000000FF07FF07FF07FF07FF07FF07FF07AD
:1049E000FF07FF07FF07FF07FF07FF07FF07FF0797
:1049F000FF07FF07FF07FF07FF07FF07FF07FF0787
:104A0000FF07FF070000E4E8E4E8E4E8E4E8E4E89E
:104A1000E4E80000FF07FF07FF07FF07FF07FF07A6
:104A2000FF07FF07FF07FF07FF07FF07FF07FF0756
:104A3000FF07FF07FF07FF07FF07FF07FF07FF0746
:104A4000FF07FF07FF070000E4E8E4E8E4E8E4E824
:104A5000E4E8E4E80000FF07FF07FF07FF07FF07A0
:104A6000FF07FF07FF07FF07FF07FF07FF07FF0716
:104A7000FF07FF07FF07FF07FF07FF07FF07FF0706
:104A8000FF07FF07FF07FF070000E4E8E4E8E4E8AA
:104A9000E4E8E4E8E4E80000FF07FF07FF07FF079A
:104AA000FF07FF07FF07FF07FF07FF07FF07FF07D6
:104AB000FF07FF07FF07FF07FF07FF07FF07FF07C6
:104AC000FF07FF07FF07FF07FF070000E4E8E4E830
:104AD000E4E8E4E8E4E8E4E80000FF07FF07FF0794
:104AE000FF07FF07FF07FF07FF07FF07FF07FF0796
:104AF000FF07FF07FF07FF07FF07FF07FF07FF0786
:104B0000FF07FF07FF07FF07FF07FF070000E4E8B5
:104B1000E4E8E4E8E4E8E4E8E4E80000FF07FF078D
:104B2000FF07FF07FF07FF07FF07FF07FF07FF0755
:104B3000FF07FF07FF07FF07FF07FF07FF07FF0745
:104B4000FF07FF07FF07FF07FF07FF07FF0700003B
:104B5000E4E8E4E8E4E8E4E8E4E8E4E80000FF0787
:104B6000FF07FF07FF07FF07FF07FF07FF07FF0715
:104B7000FF07FF07FF07FF07FF07FF07FF07FF0705
:104B8000FF07FF07FF07FF07FF07FF07FF07FF07F5
:104B90000000E4E8E4E8E4E8E4E8E4E8E4E800004D
:104BA000FF07FF07FF07FF07FF07FF07FF07FF07D5
:104BB000FF07FF07FF07FF07FF07FF07FF07FF07C5
:104BC000FF07FF07FF07FF07FF07FF07FF07FF07B5
:104BD000FF070000E4E8E4E8E4E8E4E8E4E8E4E807
:104BE0000000FF07FF07FF07FF07FF07FF07FF079B
:104BF000FF07FF07FF07FF07FF07FF07FF07FF0785
:104C0000FF07FF07FF07FF07FF07FF07FF07FF0774
:104C1000FF07FF070000E4E8E4E8E4E8E4E8E4E88C
:104C2000E4E80000FF07FF07FF07FF07FF07FF0794
:104C3000FF07FF0700000000000000000000000068
:104C40000000000000000000000000000000000064
:104C5000000000000000FF070000E4E8E4E8E4E8EA
:104C6000E4E80000FF07FF07FF07FF07FF07FF0754
:104C7000FF07FF070000E4E8E4E8E4E8E4E8E4E82C
:104C8000E4E8E4E8E4E8E4E8E4E8E4E8E4E8E4E8C4
:104C9000E4E8E4E8E4E8E4E80000FF070000E4E812
:104CA000E4E80000FF07FF07FF07FF07FF07FF0714
:104CB000FF07FF070000E4E8E4E8E4E8E4E8E4E8EC
:104CC000E4E8E4E8E4E8E4E8E4E8E4E8E4E8E4E884
:104CD000E4E8E4E8E4E8E4E8E4E8E4E80000FF0706
:104CE00000000000FF07FF07FF07FF07FF07FF07A0
:104CF000FF07FF070000E4E8E4E8E4E8E4E8E4E8AC
:104D0000E4E8E4E8E4E8E4E8E4E8E4E8E4E8E4E843
:104D1000E4E8E4E8E4E8E4E8E4E8E4E8E4E8E4E833
:104D20000000FF07FF07FF07FF07FF07FF07FF0759
:104D3000FF07FF07FF070000E4E8E4E8E4E8E4E831
:104D4000E4E8E4E8E4E8E4E8E4E8E4E8E4E8E4E803
:104D5000E4E8E4E8E4E8E4E8E4E8E4E8E4E8E4E8F3
:104D6000E4E80000FF07FF07FF07FF07FF07FF0753
:104D7000FF07FF07FF07FF07FF070000E4E8E4E87D
:104D8000E4E8E4E8E4E8E4E8E4E8E4E8E4E8E4E8C3
:104D9000E4E8E4E8E4E8E4E8E4E8E4E8E4E8E4E8B3
:104DA000E4E80000FF07FF07FF07FF07FF07FF0713
:104DB000FF07FF07FF07FF07FF07FF07FF070000C9
:104DC000E4E8E4E8E4E8E4E8E4E8E4E8E4E8E4E883
:104DD000E4E8E4E8E4E8E4E8E4E8E4E8E4E8E4E873
:104DE000E4E80000FF07FF07FF07FF07FF07FF07D3
:104DF000FF07FF07FF07FF07FF07FF07FF07FF0783
:104E0000FF0700000000000000000000000000009C
:104E10000000000000000000000000000000000092
:104E200000000000FF07FF07FF07FF07FF07FF075E
:104E3000FF07FF07FF07FF07FF07FF07FF07FF0742
:104E4000FF07FF07FF07FF07FF07FF07FF07FF0732
:104E5000FF07FF07FF07FF07FF07FF07FF07FF0722
:104E6000FF07FF07FF07FF07FF07FF07FF07FF0712
:104E7000FF07FF07FF07FF07FF07FF07FF07FF0702
:104E8000FF07FF07FF07FF07FF07FF07FF07FF07F2
:104E9000FF07FF07FF07FF07FF07FF07FF07FF07E2
:104EA000FF07FF07FF07FF07FF07FF07FF07FF07D2
:104EB000FF07FF07FF07FF07FF07FF07FF07FF07C2
:104EC000FF07FF07FF07FF07FF07FF07FF07FF07B2
:104ED000FF07FF07FF07FF07FF07FF07FF07FF07A2
:104EE000FF07FF07FF07FF07FF07FF07FF07FF0792
:104EF000FF07FF07FF07FF07FF07FF07FF07FF0782
:104F0000FF07FF07FF07FF07FF07FF07FF07FF0771
:104F1000FF07FF07FF07FF07FF07FF07FF07FF0761
:104F2000FF07FF07FF07FF07FF07FF07FF07FF0751
:104F3000FF07FF07FF07FF07FF07FF07FF07FF0741
:104F4000FF07FF07FF07FF07FF07FF07FF07FF0731
:104F5000FF07FF07FF07FF07FF07FF07FF07FF0721
:104F6000FF07FF07FF07FF07FF07FF07FF07FF0711
:104F7000FF07FF07FF07FF07FF07FF07FF07FF0701
:104F8000FF07FF0700000000FF07FF07FF07FF07FD
:104F9000FF07FF07FF07FF07FF07FF07FF07FF07E1
:104FA000FF07FF07FF07FF07FF07FF07FF07FF07D1
:104FB000FF07FF07FF0700000000FF07FF07FF07CD
:104FC000FF07FF070000E4E8E4E80000FF07FF0731
:104FD000FF07FF07FF07FF07FF07FF07FF07FF07A1
:104FE000FF07FF07FF07FF07FF07FF07FF07FF0791
:104FF000FF07FF07FF070000E4E8E4E80000FF0701
:10500000FF07FF070000E4E8E4E8E4E8E4E8000064
:10501000FF07FF07FF07FF07FF07FF07FF07FF0760
:10502000FF07FF07FF07FF07FF07FF07FF07FF0750
:10503000FF07FF07FF070000E4E8E4E8E4E8E4E82E
:105040000000FF070000E4E8E4E8E4E8E4E8E4E85E
:10505000E4E80000FF07FF07FF07FF07FF07FF0760
:10506000FF07FF07FF07FF07FF07FF07FF07FF0710
:10507000FF07FF07FF070000E4E8E4E8E4E8E4E8EE
:10508000E4E8E4E800000000E4E8E4E8E4E8E4E858
:10509000E4E8E4E80000FF07FF07FF07FF07FF075A
:1050A000FF07FF07FF07FF07FF07FF07FF07FF07D0
:1050B000FF07FF07FF07FF070000E4E8E4E8E4E874
:1050C000E4E8E4E8E4E800000000E4E8E4E8E4E818
:1050D000E4E8E4E8E4E80000FF07FF07FF07FF0754
:1050E000FF07FF07FF07FF07FF07FF07FF07FF0790
:1050F000FF07FF07FF07FF07FF070000E4E8E4E8FA
:10510000E4E8E4E8E4E8E4E800000000E4E8E4E8D7
:10511000E4E8E4E8E4E8E4E80000FF07FF07FF074D
:10512000FF07FF07FF07FF07FF07FF07FF07FF074F
:10513000FF07FF07FF07FF07FF07FF070000E4E87F
:10514000E4E8E4E8E4E8E4E8E4E800000000E4E897
:10515000E4E8E4E8E4E8E4E8E4E80000FF07FF0747
:10516000FF07FF07FF07FF07FF07FF07FF07FF070F
:10517000FF07FF07FF07FF07FF07FF07FF07000005
:10518000E4E8E4E8E4E8E4E8E4E8E4E80000000057
:10519000E4E8E4E8E4E8E4E8E4E8E4E80000FF0741
:1051A000FF07FF07FF07FF07FF07FF07FF07FF07CF
:1051B000FF07FF07FF07FF07FF07FF07FF07FF07BF
:1051C0000000E4E8E4E8E4E8E4E8E4E8E4E8000017
:1051D0000000E4E8E4E8E4E8E4E8E4E8E4E8000007
:1051E000FF07FF07FF07FF07FF07FF07FF07FF078F
:1051F000FF07FF07FF07FF07FF07FF07FF07FF077F
:10520000FF070000E4E8E4E8E4E8E4E8E4E8E4E8D0
:1052100000000000E4E8E4E8E4E8E4E8E4E8E4E8C6
:105220000000FF07FF07FF07FF07FF07FF07FF0754
:10523000FF07FF07FF07FF07FF07FF07FF07FF073E
:10524000FF07FF070000E4E8E4E8E4E8E4E8E4E856
:10525000E4E800000000E4E8E4E8E4E8E4E8E4E886
:10526000E4E80000FF07FF07FF07FF07FF07FF074E
:10527000FF07FF07FF07FF07FF07FF07FF07FF07FE
:10528000FF07FF07FF070000E4E8E4E8E4E8E4E8DC
:10529000E4E8E4E800000000E4E8E4E8E4E8E4E846
:1052A000E4E8E4E80000FF07FF07FF07FF07FF0748
:1052B000FF07FF07FF07FF07FF07FF07FF07FF07BE
:1052C000FF07FF07FF07FF070000E4E8E4E8E4E862
:1052D000E4E8E4E8E4E800000000E4E8E4E8E4E806
:1052E000E4E8E4E8E4E80000FF07FF07FF07FF0742
:1052F000FF07FF07FF07FF07FF07FF07FF07FF077E
:10530000FF07FF07FF07FF07FF070000E4E8E4E8E7
:10531000E4E8E4E8E4E8E4E800000000E4E8E4E8C5
:10532000E4E8E4E8E4E8E4E80000FF07FF07FF073B
:10533000FF07FF07FF07FF07FF07FF07FF07FF073D
:10534000FF07FF07FF07FF07FF07FF070000E4E86D
:10535000E4E8E4E8E4E8E4E8E4E800000000E4E885
:10536000E4E8E4E8E4E8E4E8E4E80000FF07FF0735
:10537000FF07FF07FF07FF07FF07FF07FF07FF07FD
:10538000FF07FF07FF07FF07FF07FF07FF070000F3
:10539000E4E8E4E8E4E8E4E8E4E8E4E80000000045
:1053A000E4E8E4E8E4E8E4E8E4E8E4E80000FF072F
:1053B000FF07FF07FF07FF07FF07FF07FF07FF07BD
:1053C000FF07FF07FF07FF07FF07FF07FF07FF07AD
:1053D0000000E4E8E4E8E4E8E4E8E4E8E4E8000005
:1053E0000000E4E8E4E8E4E8E4E8E4E8E4E80000F5
:1053F000FF07FF07FF07FF07FF07FF07FF07FF077D
:10540000FF07FF07FF07FF07FF07FF07FF07FF076C
:10541000FF070000E4E8E4E8E4E8E4E8E4E8E4E8BE
:1054200000000000E4E8E4E8E4E8E4E8E4E8E4E8B4
:105430000000FF07FF07FF07FF07FF07FF07FF0742
:10544000FF07FF07FF07FF07FF07FF07FF07FF072C
:10545000FF07FF070000E4E8E4E8E4E8E4E8E4E844
:10546000E4E800000000E4E8E4E8E4E8E4E8E4E874
:10547000E4E80000FF07FF07FF07FF07FF07FF073C
:10548000FF07FF07FF07FF07FF07FF07FF07FF07EC
:10549000FF07FF07FF070000E4E8E4E8E4E8E4E8CA
:1054A000E4E8E4E80000FF070000E4E8E4E8E4E8FA
:1054B000E4E80000FF07000000000000000000001A
:1054C00000000000000000000000000000000000DC
:1054D0000000000000000000FF070000E4E8E4E82E
:1054E000E4E8E4E80000FF07FF07FF070000E4E846
:1054F000E4E80000FF070000E4E8E4E8E4E8E4E8AA
:10550000E4E8E4E8E4E8E4E8E4E8E4E8E4E8E4E83B
:10551000E4E8E4E8E4E8E4E8E4E80000FF07000089
:10552000E4E8E4E80000FF07FF07FF07FF07FF07C5
:1055300000000000FF070000E4E8E4E8E4E8E4E835
:10554000E4E8E4E8E4E8E4E8E4E8E4E8E4E8E4E8FB
:10555000E4E8E4E8E4E8E4E8E4E8E4E8E4E80000B7
:10556000FF0700000000FF07FF07FF07FF07FF0717
:10557000FF07FF07FF070000E4E8E4E8E4E8E4E8E9
:10558000E4E8E4E8E4E8E4E8E4E8E4E8E4E8E4E8BB
:10559000E4E8E4E8E4E8E4E8E4E8E4E8E4E8E4E8AB
:1055A000E4E80000FF07FF07FF07FF07FF07FF070B
:1055B000FF07FF07FF07FF070000E4E8E4E8E4E86F
:1055C000E4E8E4E8E4E8E4E8E4E8E4E8E4E8E4E87B
:1055D000E4E8E4E8E4E8E4E8E4E8E4E8E4E8E4E86B
:1055E000E4E8E4E80000FF07FF07FF07FF07FF0705
:1055F000FF07FF07FF07FF07FF07FF070000E4E8BB
:10560000E4E8E4E8E4E8E4E8E4E8E4E8E4E8E4E83A
:10561000E4E8E4E8E4E8E4E8E4E8E4E8E4E8E4E82A
:10562000E4E8E4E80000FF0700000000FF07FF07D0
:10563000FF07FF07FF07FF07FF07FF07FF07FF073A
:105640000000E4E8E4E8E4E8E4E8E4E8E4E8E4E8C6
:10565000E4E8E4E8E4E8E4E8E4E8E4E8E4E8E4E8EA
:10566000E4E8E4E80000FF070000E4E8E4E8000004
:10567000FF07FF07FF07FF07FF07FF07FF07FF07FA
:10568000FF07FF070000000000000000000000000E
:10569000000000000000000000000000000000000A
:1056A000000000000000FF070000E4E8E4E8E4E890
:1056B000E4E80000FF07FF07FF07FF07FF07FF07FA
:1056C000FF07FF07FF07FF07FF07FF07FF07FF07AA
:1056D000FF07FF07FF07FF07FF07FF07FF07FF079A
:1056E000FF07FF07FF07FF070000E4E8E4E8E4E83E
:1056F000E4E8E4E8E4E80000FF07FF07FF07FF072E
:10570000FF07FF07FF07FF07FF07FF07FF07FF0769
:10571000FF07FF07FF07FF07FF07FF07FF07FF0759
:10572000FF07FF07FF07FF07FF070000E4E8E4E8C3
:10573000E4E8E4E8E4E8E4E80000FF07FF07FF0727
:10574000FF07FF07FF07FF07FF07FF07FF07FF0729
:10575000FF07FF07FF07FF07FF07FF07FF07FF0719
:10576000FF07FF07FF07FF07FF07FF070000E4E849
:10577000E4E8E4E8E4E8E4E8E4E80000FF07FF0721
:10578000FF07FF07FF07FF07FF07FF07FF07FF07E9
:10579000FF07FF07FF07FF07FF07FF07FF07FF07D9
:1057A000FF07FF07FF07FF07FF07FF07FF070000CF
:1057B000E4E8E4E8E4E8E4E8E4E8E4E80000FF071B
:1057C000FF07FF07FF07FF07FF07FF07FF07FF07A9
:1057D000FF07FF07FF07FF07FF07FF07FF07FF0799
:1057E000FF07FF07FF07FF07FF07FF07FF07FF0789
:1057F0000000E4E8E4E8E4E8E4E8E4E8E4E80000E1
:10580000FF07FF07FF07FF07FF07FF07FF07FF0768
:10581000FF07FF07FF07FF07FF07FF07FF07FF0758
:10582000FF07FF07FF07FF07FF07FF07FF07FF0748
:10583000FF070000E4E8E4E8E4E8E4E8E4E8E4E89A
:105840000000FF07FF07FF07FF07FF07FF07FF072E
:10585000FF07FF07FF07FF07FF07FF07FF07FF0718
:10586000FF07FF07FF07FF07FF07FF07FF07FF0708
:10587000FF07FF070000E4E8E4E8E4E8E4E8E4E820
:10588000E4E80000FF07FF07FF07FF07FF07FF0728
:10589000FF07FF07FF07FF07FF07FF07FF07FF07D8
:1058A000FF07FF07FF07FF07FF07FF07FF07FF07C8
:1058B000FF07FF07FF070000E4E8E4E8E4E8E4E8A6
:1058C000E4E8E4E80000FF07FF07FF07FF07FF0722
:1058D000FF07FF07FF07FF07FF07FF07FF07FF0798
:1058E000FF07FF07FF07FF07FF07FF07FF07FF0788
:1058F000FF07FF07FF07FF070000E4E8E4E8E4E82C
:10590000E4E8E4E8E4E80000FF07FF07FF07FF071B
:10591000FF07FF07FF07FF07FF07FF07FF07FF0757
:10592000FF07FF07FF07FF07FF07FF07FF07FF0747
:10593000FF07FF07FF07FF07FF070000E4E8E4E8B1
:10594000E4E8E4E8E4E8E4E80000FF07FF07FF0715
:10595000FF07FF07FF07FF07FF07FF07FF07FF0717
:10596000FF07FF07FF07FF07FF07FF07FF07FF0707
:10597000FF07FF07FF07FF07FF07FF070000E4E837
:10598000E4E8E4E8E4E8E4E8E4E80000FF07FF070F
:10599000FF07FF07FF07FF07FF07FF07FF07FF07D7
:1059A000FF07FF07FF07FF07FF07FF07FF07FF07C7
:1059B000FF07FF07FF07FF07FF07FF07FF070000BD
:1059C000E4E8E4E8E4E8E4E8E4E8E4E80000FF0709
:1059D000FF07FF07FF07FF07FF07FF07FF07FF0797
:1059E000FF07FF07FF07FF07FF07FF07FF07FF0787
:1059F000FF07FF07FF07FF07FF07FF07FF07FF0777
:105A00000000E4E8E4E8E4E8E4E8E4E8E4E80000CE
:105A1000FF07FF07FF07FF07FF07FF07FF07FF0756
:105A2000FF07FF07FF07FF07FF07FF07FF07FF0746
:105A3000FF07FF07FF07FF07FF07FF07FF07FF0736
:105A4000FF070000E4E8E4E8E4E8E4E8E4E8E4E888
:105A50000000FF07FF07FF07FF07FF07FF07FF071C
:105A6000FF07FF07FF07FF07FF07FF07FF07FF0706
:105A7000FF07FF07FF07FF07FF07FF07FF07FF07F6
:105A8000FF07FF070000E4E8E4E8E4E8E4E8E4E80E
:105A9000E4E80000FF07FF07FF07FF07FF07FF0716
:105AA000FF07FF07FF07FF07FF07FF07FF07FF07C6
:105AB000FF07FF07FF07FF07FF07FF07FF07FF07B6
:105AC000FF07FF07FF070000E4E8E4E8E4E8E4E894
