:020000040800F2
:10000000000005205D3D0008AD3D0008AD3D000845
:10001000AD3D0008AD3D0008AD3D0008000000000A
:10002000000000000000000000000000AD3D0008DE
:10003000AD3D000800000000AD3D0008AD3D0008EA
:10004000AD3D0008AD3D0008AD3D0008AD3D0008E8
:10005000AD3D0008AD3D0008412F0008AD3D000852
:1000600009320008AD3D000809340008AD3D000824
:10007000AD3D0008AD3D0008AD3D0008AD3D0008B8
:10008000AD3D0008AD3D0008AD3D0008AD3D0008A8
:10009000AD3D0008AD3D0008AD3D0008CD35000880
:1000A000AD3D0008AD3D0008AD3D0008AD3D000888
:1000B000C1280008AD3D0008CD2C0008AD3D00086A
:1000C000AD3D0008AD3D0008AD3D0008AD3D000868
:1000D000AD3D0008AD3D0008AD3D0008AD3D000858
:1000E00049390008AD3D0008AD3D0008AD3D0008B0
:1000F000AD3D0008AD3D0008AD3D0008AD3D000838
:10010000AD3D0008AD3D0008E5290008AD3D000803
:10011000AD3D0008AD3D0008AD3D0008AD3D000817
:10012000AD3D0008AD3D0008AD3D0008AD3D000807
:10013000AD3D0008AD3D0008AD3D0008AD3D0008F7
:10014000AD3D0008AD3D0008AD3D0008AD3D0008E7
:10015000AD3D0008AD3D0008AD3D0008AD3D0008D7
:10016000AD3D0008AD3D0008AD3D0008AD3D0008C7
:10017000AD3D0008AD3D0008AD3D0008AD3D0008B7
:10018000AD3D000800000000AD3D0008AD3D000899
:10019000AD3D0008AD3D0008AD3D0008AD3D000897
:1001A000AD3D0008AD3D0008AD3D0008AD3D000887
:1001B000AD3D0008AD3D0008AD3D0008AD3D000877
:0801C000AD3D0008AD3D000853
:1001C80010B5054C237833B9044B13B10448AFF389
:1001D80000800123237010BD0000002000000000F3
:1001E800F83D000808B5034B1BB103490348AFF3BA
:1001F800008008BD0000000004000020F83D000851
:1002080080B483B000AF0346FB7197F90730002B29
:100218000BDBFB7903F01F02074997F907305B09ED
:10022800012000FA02F241F8232000BF0C37BD4636
:100238005DF8047B704700BF00E100E080B483B044
:1002480000AF0346FB7197F90730002B12DBFB79EF
:1002580003F01F020A4997F907305B09012000FAE9
:1002680002F2203341F82320BFF34F8F00BFBFF3C2
:100278006F8F00BF00BF0C37BD465DF8047B704729
:1002880000E100E080B483B000AF03463960FB7141
:1002980097F90730002B0ADB3B68DAB20C4997F96B
:1002A80007301201D2B20B4483F800230AE03B68FE
:1002B800DAB20849FB7903F00F03043B1201D2B20A
:1002C8000B441A7600BF0C37BD465DF8047B7047B7
:1002D80000E100E000ED00E080B582B000AF9D4B8A
:1002E8005B6C9C4A43F4804353649A4B5B6C994A19
:1002F80043F080635364974B1B6B964A43F00103AA
:100308001363944B1B6B934A43F002031363914BA3
:100318001B6B904A43F0040313638E4B1B6B8D4A8F
:1003280043F0100313638B4B1B6B8A4A43F0200383
:100338001363884B1B6B874A43F400731363854B25
:100348001B6B844A43F040031363824B1B6B814A47
:1003580043F4806313637F4B1B6B7E4A43F48073C3
:1003680013637C4B1B6C7B4A43F080031364794B0B
:100378001B6C784A43F480731364764B5B6C754A44
:1003880043F480235364734B1B6C724A43F001039C
:100398001364704B1B6C6F4A43F0020313646D4B7C
:1003A8001B6C6C4A43F0080313646A4B1B6C694A64
:1003B80043F004031364674B1B6C664A43F0805395
:1003C8001364644B1B68634A43F00103136000BF66
:1003D800604B1B6803F00203002BF9D05E4B1B68CF
:1003E8005D4A43F0050313605A4B5B68594A23F092
:1003F8003F035360574B5B68564A43F0080353600A
:10040800544B5A685349554B13404B60514B5B68EA
:10041800504A43F4D85353604E4B5B684D4A23F41B
:10042800403353604B4B9B684A4A43F410439360F4
:10043800484B5B68474A23F480035360454B1B686D
:10044800444A43F08073136000BF424B1B6803F0BB
:100458000073002BF9D03F4B9B683E4A43F00203E0
:10046800936000BF3B4B9B6803F00C03082BF9D14A
:10047800384BD3F88830374A43F4C053C2F8883031
:10048800344BD3F88830334A43F0A043C2F888305D
:10049800304BD3F88C302F4A43F48033C2F88C3079
:1004A8002C4BD3F88C302B4A23F40033C2F88C3011
:1004B800284B1B68274A43F08053136000BF254B25
:1004C8001B6803F00053002BF9D0254B1B68244A06
:1004D80043F400531360224B1B6A214A43F0007314
:1004E8001362204B4FF487629A621E4B6422DA62D1
:1004F8001C4B00225A631B4B9B691A4A43F060034A
:100508009361184B1B6A174A43F001031362154B9A
:100518001B68144A43F001031360134B1B68124A0B
:1005280043F400331360104B5B6A0F4A43F009032E
:1005380053620E4B6C229A620C4B2822DA620B4BE8
:1005480000225A63094B9B69084A43F06003936190
:100558000EE000BF00380240003C02403F80FFFF31
:10056800000802400004004000140240001C004043
:10057800A54B1B6AA44A43F001031362A24B1B68F4
:10058800A14A43F001031360A04B1B689F4A43F440
:10059800004313609D4B1B6A9C4A43F0405313620F
:1005A8009B4B6C229A629A4BC822DA62984B0022C3
:1005B8005A63974B9B69964A43F060039361944B47
:1005C8001B6A934A43F001031362914B1B68904ADC
:1005D80043F0010313608D4B1B688C4A43F40023DE
:1005E80013608A4B5B6A894A43F090035362894BD4
:1005F8006C229A62874B2822DA62864B00225A6361
:10060800844B9B69834A43F060039361814B1B6A67
:10061800804A43F0010313627E4B1B687D4A43F016
:10062800010313604FF080434FF487629A624FF0E2
:100638008043794ADA624FF08043DB684FF08042AA
:1006480043F00103D36000211C20FFF71BFE1C2090
:10065800FFF7D6FD4FF080431B684FF0804243F010
:10066800010313606D4B6E4A9A626C4B0122DA6289
:100678006A4BDB68694A43F00103D3600F213220DB
:10068800FFF700FE3220FFF7BBFD664B6C229A6233
:10069800644B41F28732DA62624BDB68614A43F0AD
:1006A8000103D3605F4B1B685E4A43F0010313608C
:1006B8001E20FFF7A5FD5C4B9A685B4940F2036377
:1006C80013438B60584BDB68574A43F06303D3608E
:1006D800554B1B69544A43F004031361524B5B6941
:1006E800514A43F4A0435361504B1A684F4948F2AA
:1006F800351313430B604D4BDA684C4948F23513F8
:100708001343CB600F210620FFF7BCFD0F21082003
:10071800FFF7B8FD0F210A20FFF7B4FD0F211720BE
:10072800FFF7B0FD0F212820FFF7ACFD0620FFF7EB
:1007380067FD0820FFF764FD0A20FFF761FD172019
:10074800FFF75EFD2820FFF75BFD62B600BF384B60
:100758001B68374A23F440731360354B1B68344ACF
:1007680043F400731360324B9B68314A43F40073BF
:1007780093602F4B1B6A2E4A23F4803313622C4B51
:100788001B6A2B4A43F4602313622A4B1B68294ACD
:1007980023F040631360274B1B68264A43F000632D
:1007A8001360244B9B68234A43F000639360214BFA
:1007B8005B6A204A23F4801353621E4B5B6A1D4A0E
:1007C80043F4600353621B4B1B681A4A23F04053DF
:1007D8001360184B1B68174A43F000531360154BFE
:1007E8009B68144A43F000539360124B5B6A114AAA
:1007F80023F0807353620F4B5B6A0E4A43F06063C9
:1008080053620C4B1B6817E0001C004000140240A8
:10081800004801400020004020145D00000C00400A
:10082800C07A10000008004000380140003C014038
:100838000010024000240240984A23F0404313600D
:10084800964B1B68954A43F000431360934B9B6893
:10085800924A43F000439360904B5B6A8F4A23F0BF
:10086800805353628D4B5B6A8C4A43F060435362FA
:100878008A4B1B68894A23F040731360874B1B68B7
:10088800864A43F000731360844B9B68834A43F0A5
:1008980000739360814B5B6A804A23F48033536210
:1008A8007E4B5B6A7D4A43F4602353627C4B1B6832
:1008B8007B4A23F440731360794B1B68784A43F4EE
:1008C80000731360764B9B68754A43F4007393601A
:1008D800734B1B6A724A23F480331362704B1B6A92
:1008E8006F4A43F4602313626D4B1B686C4A23F410
:1008F800406313606A4B1B68694A43F400631360E2
:10090800674B9B68664A43F400639360644B1B6AB9
:10091800634A23F480131362614B1B6A604A43F4F1
:10092800600313625E4B1B685D4A23F440531360F7
:100938005B4B1B685A4A43F400531360584B9B683F
:10094800574A43F400539360554B1B6A544A23F0AB
:1009580080731362524B1B6A514A43F060631362FF
:10096800504B1B684F4A23F0404313604D4B1B68A4
:100978004C4A43F0004313604A4B9B68494A43F092
:1009880000439360474B5B6A464A23F080535362A7
:10099800444B5B6A434A43F0604353623F4B1B68D6
:1009A8003E4A23F0030313603C4B1B683B4A43F069
:1009B80002031360394B9B68384A43F00203936083
:1009C800364B1B6A354A23F001031362334B1B6A0B
:1009D800324A43F00E031362304B1B682F4A23F050
:1009E8000C0313602D4B1B682C4A43F0080313605B
:1009F8002A4B9B68294A43F008039360274B1B6ADC
:100A0800264A23F010031362244B1B6A234A43F03F
:100A1800E0031362214B1B68204A23F03003136064
:100A28001E4B1B681D4A43F0200313601B4B9B6839
:100A38001A4A43F020039360184B1B6A174A23F4A1
:100A480080731362154B1B6A144A43F46063136284
:100A5800124B1B68114A23F0C00313600F4B1B682D
:100A68000E4A43F0800313600C4B9B680B4A43F01B
:100A780080039360094B1B6A084A23F4805313626E
:100A8800064B1B6A054A43F460431362034B1B6819
:100A9800024A23F44073136006E000BF00240240BA
:100AA8000028024000200240984B1B68974A43F4F4
:100AB80000731360954B9B68944A43F400739360EA
:100AC800924B1B6A914A23F4803313628F4B1B6A43
:100AD8008E4A43F4602313628C4B1B688B4A23F4C1
:100AE80040631360894B1B68884A43F400631360B2
:100AF800864B9B68854A43F400639360834B1B6A6B
:100B0800824A23F480131362804B1B6A7F4A43F4A2
:100B1800600313627D4B1B687C4A23F440531360C7
:100B28007A4B1B68794A43F400531360774B9B68F0
:100B3800764A43F400539360744B1B6A734A23F05C
:100B480080731362714B1B6A704A43F060631362CF
:100B58006E4B1B686D4A23F4404313606B4B1B6854
:100B68006A4A43F400431360684B9B68674A43F43E
:100B780000439360654B1B6A644A23F080531362F9
:100B8800624B1B6A614A43F0604313625F4B1B6808
:100B98005E4A23F4403313605C4B1B685B4A43F4A2
:100BA80000331360594B9B68584A43F400339360F1
:100BB800564B5B6A554A23F001035362534B5B6AF9
:100BC800524A43F00E035362504B1B684F4A23F4BA
:100BD800402313604D4B1B684C4A43F400231360B9
:100BE8004A4B9B68494A43F400239360474B5B6A2E
:100BF800464A23F010035362444B5B6A434A43F06E
:100C0800E0035362414B1B68404A23F440131360CE
:100C18003E4B1B683D4A43F4001313603B4B9B68F3
:100C28003A4A43F400139360384B5B6A374A23F41B
:100C380080735362354B5B6A344A43F46063536292
:100C4800324B1B68314A23F4400313602F4B1B6857
:100C58002E4A43F4000313602C4B9B682B4A43F441
:100C680000039360294B5B6A284A23F4805353623C
:100C7800264B5B6A254A43F460435362244B1B6846
:100C8800234A23F003031360214B1B68204A43F0D7
:100C9800020313601E4B9B681D4A43F002039360D6
:100CA8001B4B1B6A1A4A23F001031362184B1B6A79
:100CB800174A43F00E031362154B1B68144A23F0BE
:100CC8000C031360124B1B68114A43F008031360AE
:100CD8000F4B9B680E4A43F0080393600C4B1B6A4A
:100CE8000B4A23F010031362094B1B6A084A43F0AE
:100CF800E0031362064B1B68054A23F030031360B8
:100D0800034B1B68024A43F0200303E0002402401F
:100D1800002802401360824B9B68814A43F02003FD
:100D280093607F4B1B6A7E4A23F4807313627C4B6B
:100D38001B6A7B4A43F4606313627A4B1B68794AE7
:100D480023F440231360774B1B68764A43F400234F
:100D58001360744B9B68734A43F400239360714B90
:100D68005B6A704A23F0100353626E4B5B6A6D4AEC
:100D780043F0E00353626B4B1B686A4A23F4401349
:100D88001360684B1B68674A43F400131360654B94
:100D98009B68644A43F400139360624B5B6A614A40
:100DA80023F4807353625F4B5B6A5E4A43F460636B
:100DB80053625C4B1B685B4A23F040531360594BEA
:100DC8001B68584A43F000531360564B9B68554ABA
:100DD80043F000539360534B5B6A524A23F080738D
:100DE8005362504B5B6A4F4A43F0606353624C4B0B
:100DF8001B684B4A23F440431360494B1B68484A1D
:100E080043F400431360464B9B68454A43F4004350
:100E18009360434B1B6A424A23F080531362404B52
:100E28001B6A3F4A43F0604313623F4B28225A63D0
:100E38003C4B1B683B4A23F040731360394B1B68DB
:100E4800384A43F080731360364B9B69354A43F444
:100E580080539361354B9A683449354B13438B6003
:100E6800324BDA683149334B1343CB602F4B1A6945
:100E78002E49314B13430B612C4B5A692B492F4B8D
:100E880013434B612E4B5A682D492E4B13434B602D
:100E98002B4B9A682A492C4B13438B60284B022210
:100EA8001A61274BDA69264940F205431343CB619F
:100EB800234BFF225A61224BDA6A2149234B134301
:100EC800CB621F4B1B6B1E4A43F4887313631C4B86
:100ED8001B681B4A43F001031360144B5B6A134AF7
:100EE80043F002035362114B9B69104A43F001031C
:100EF800936100237B600AE0154A7B6832F813107F
:100F0800144A7B6822F813107B6801337B607B6886
:100F1800B3F5FF3FF0DB00BF00BF0837BD4680BD1B
:100F28000028024000200240001C004000680140E8
:100F380009001D000B002A001B010A021D012A02DC
:100F4800046901402B000A020C001B01830780077B
:100F5800F4CA0A081C00002080B49BB000AF786077
:100F6800396000237B6600233B667B68012B01D137
:100F780000237B667B68022B01D126237B667B6876
:100F8800032B01D156237B667B68042B01D17C237C
:100F98007B663B680A2B26D10023FB6520E00023F3
:100FA800BB6517E0396E4B1C3B667B6E41F2F9322C
:100FB8001A44F86D03461B011B1A5B011A44BB6DEA
:100FC8001344A04A32F811109F4A22F81310BB6D3F
:100FD8000133BB65BB6D202BE4DDFB6D0133FB6585
:100FE800FB6D392BDBDD3B68002B26D100237B65AD
:100FF80020E000233B6517E0396E4B1C3B667B6E97
:1010080041F2F9321A44786D03461B011B1A5B0141
:101018001A443B6D13448D4A32F811108A4A22F85B
:1010280013103B6D01333B653B6D202BE4DD7B6D7D
:1010380001337B657B6D392BDBDD3B68012B26D1CA
:101048000023FB6420E00023BB6417E0396E4B1CCF
:101058003B667B6E41F2F9321A44F86C03461B0179
:101068001B1A5B011A44BB6C1344794A32F81110FD
:10107800754A22F81310BB6C0133BB64BB6C202B80
:10108800E4DDFB6C0133FB64FB6C392BDBDD3B6877
:10109800022B26D100237B6420E000233B6417E069
:1010A800396E4B1C3B667B6E41F2F9321A44786C00
:1010B80003461B011B1A5B011A443B6C1344654A27
:1010C80032F81110604A22F813103B6C01333B646C
:1010D8003B6C202BE4DD7B6C01337B647B6C392B10
:1010E800DBDD3B68032B26D10023FB6320E00023D4
:1010F800BB6317E0396E4B1C3B667B6E41F2F932DD
:101108001A44F86B03461B011B1A5B011A44BB6B9C
:101118001344514A32F811104B4A22F81310BB6B92
:101128000133BB63BB6B202BE4DDFB6B0133FB633B
:10113800FB6B392BDBDD3B68042B26D100237B635B
:1011480020E000233B6317E0396E4B1C3B667B6E47
:1011580041F2F9321A44786B03461B011B1A5B01F2
:101168001A443B6B13443D4A32F81110364A22F8B0
:1011780013103B6B01333B633B6B202BE4DD7B6B34
:1011880001337B637B6B392BDBDD3B68052B26D179
:101198000023FB6220E00023BB6217E0396E4B1C82
:1011A8003B667B6E41F2F9321A44F86A03461B012A
:1011B8001B1A5B011A44BB6A1344294A32F81110FE
:1011C800214A22F81310BB6A0133BB62BB6A202B89
:1011D800E4DDFB6A0133FB62FB6A392BDBDD3B682C
:1011E800062B26D100237B6220E000233B6217E018
:1011F800396E4B1C3B667B6E41F2F9321A44786AB1
:1012080003461B011B1A5B011A443B6A1344154A27
:1012180032F811100C4A22F813103B6A01333B6272
:101228003B6A202BE4DD7B6A01337B627B6A392BC6
:10123800DBDD3B68072B38D10023FB6132E000235C
:10124800BB6129E03C4206081C000020B0B500083C
:10125800EC6A0008BCA60008C8970008044D0008FE
:10126800103E0008D4880008396E4B1C3B667B6E24
:1012780041F2F9321A44F86903461B011B1A5B0153
:101288001A44BB6913443A4A32F81110394A22F811
:101298001310BB690133BB61BB69202BE4DDFB691B
:1012A8000133FB61FB69392BC9DD3B68082B26D16B
:1012B80000237B6120E000233B6117E0396E4B1C63
:1012C8003B667B6E41F2F9321A44786903461B018A
:1012D8001B1A5B011A443B691344274A32F8111060
:1012E800244A22F813103B6901333B613B69202BE8
:1012F800E4DD7B6901337B617B69392BDBDD3B688E
:10130800092B26D10023FB6020E00023BB6017E0F7
:10131800396E4B1C3B667B6E41F2F9321A44F86811
:1013280003461B011B1A5B011A44BB681344134A8A
:1013380032F811100F4A22F81310BB680133BB6052
:10134800BB68202BE4DDFB680133FB60FB68392BAD
:10135800DBDD0B4B074A9A620A4B5B6A094A43F08A
:101368000203536200BF6C37BD465DF8047B7047CB
:10137800E07900081C000020A4C40008F85B0008FD
:10138800046901400068014080B499B000AF7860FA
:1013980039600023FB650023BB657B68012B01D105
:1013A8000023FB657B68022B01D16E23FB657B68FC
:1013B800032B01D1F623FB657B68042B02D14FF484
:1013C800B273FB653B68002B26D100237B6520E0C8
:1013D80000233B6517E0B96D4B1CBB65FB6D4AF2FA
:1013E8000D521A44786D03461B011B1A5B011A44FF
:1013F8003B6D1344A04A32F81110A04A22F813108A
:101408003B6D01333B653B6D622BE4DD7B6D013346
:101418007B657B6DAD2BDBDD3B68012B26D1002383
:10142800FB6420E00023BB6417E0B96D4B1CBB656F
:10143800FB6D4AF20D521A44F86C03461B011B1A45
:101448005B011A44BB6C13448D4A32F811108B4A65
:1014580022F81310BB6C0133BB64BB6C622BE4DD58
:10146800FB6C0133FB64FB6CAD2BDBDD3B68022BB3
:1014780026D100237B6420E000233B6417E0B96D8C
:101488004B1CBB65FB6D4AF20D521A44786C03463F
:101498001B011B1A5B011A443B6C1344794A32F84E
:1014A8001110764A22F813103B6C01333B643B6CF5
:1014B800622BE4DD7B6C01337B647B6CAD2BDBDD65
:1014C8003B68032B26D10023FB6320E00023BB638A
:1014D80017E0B96D4B1CBB65FB6D4AF20D521A44FF
:1014E800F86B03461B011B1A5B011A44BB6B1344C0
:1014F800654A32F81110614A22F81310BB6B0133A8
:10150800BB63BB6B622BE4DDFB6B0133FB63FB6BE3
:10151800AD2BDBDD3B68042B26D100237B6320E069
:1015280000233B6317E0B96D4B1CBB65FB6D4AF2AA
:101538000D521A44786B03461B011B1A5B011A44AF
:101548003B6B1344514A32F811104C4A22F81310DD
:101558003B6B01333B633B6B622BE4DD7B6B0133FD
:101568007B637B6BAD2BDBDD3B68052B26D1002332
:10157800FB6220E00023BB6217E0B96D4B1CBB6522
:10158800FB6D4AF20D521A44F86A03461B011B1AF6
:101598005B011A44BB6A13443D4A32F81110374ABA
:1015A80022F81310BB6A0133BB62BB6A622BE4DD0D
:1015B800FB6A0133FB62FB6AAD2BDBDD3B68062B64
:1015C80026D100237B6220E000233B6217E0B96D3F
:1015D8004B1CBB65FB6D4AF20D521A44786A0346F0
:1015E8001B011B1A5B011A443B6A1344294A32F84F
:1015F8001110224A22F813103B6A01333B623B6AFE
:10160800622BE4DD7B6A01337B627B6AAD2BDBDD19
:101618003B68072B26D10023FB6120E00023BB6138
:1016280017E0B96D4B1CBB65FB6D4AF20D521A44AD
:10163800F86903461B011B1A5B011A44BB69134472
:10164800154A32F811100D4A22F81310BB690133FC
:10165800BB61BB69622BE4DDFB690133FB61FB699C
:10166800AD2BDBDD3B68082B39D100237B6133E0F0
:1016780000233B612AE000BF380805081C00002051
:1016880054670208A481040810FB03082C5A0108B7
:1016980098D300087C740308E8ED0208B96D4B1C68
:1016A800BB65FB6D4AF20D521A44786903461B016B
:1016B8001B1A5B011A443B691344254A32F811107E
:1016C800244A22F813103B6901333B613B69622BC2
:1016D800E4DD7B6901337B617B69AD2BC8DD3B6849
:1016E800092B26D10023FB6020E00023BB6017E014
:1016F800B96D4B1CBB65FB6D4AF20D521A44F86874
:1017080003461B011B1A5B011A44BB681344124AA7
:1017180032F811100F4A22F81310BB680133BB606E
:10172800BB68622BE4DDFB680133FB60FB68AD2B13
:10173800DBDD0A4B074A9A62094B5B6A084A43F0A9
:101748000203536200BF6437BD465DF8047B7047EF
:10175800CC8E05081C000020C0E001080469014087
:101768000068014080B4CDB000AF07F59873A3F5C9
:10177800967318600023C7F82C3107F59873A3F502
:1017880096731B68C82B40F09C800023C7F828314B
:1017980029E00023C7F824311CE0D7F82C21531C7A
:1017A800C7F82C31D7F828110B461B015B1A5B01CF
:1017B800194641F249330B44D7F824110B44D04958
:1017C80031F81210CF4A22F81310D7F82431013318
:1017D800C7F82431D7F82431202BDEDDD7F828319B
:1017E8000133C7F82831D7F82831392BD1DD002348
:1017F800C7F82C310023C7F8203129E00023C7F8A7
:101808001C311CE0D7F82C21531CC7F82C31D7F811
:1018180020110B461B015B1A5B01194641F2233369
:101828000B44D7F81C110B44B54931F81210B54ACE
:1018380022F81310D7F81C310133C7F81C31D7F838
:101848001C31202BDEDDD7F820310133C7F82031D9
:10185800D7F82031392BD1DD0023C7F82C310023EC
:10186800C7F8183129E00023C7F814311CE0D7F86D
:101878002C21531CC7F82C31D7F818110B461B0123
:101888005B1A5B01194641F2FD230B44D7F814118A
:101898000B449B4931F812109A4A22F81310D7F8D2
:1018A80014310133C7F81431D7F81431202BDEDD99
:1018B800D7F818310133C7F81831D7F81831392B50
:1018C800D1DD07F59873A3F596731B68002B40F0DC
:1018D8009C800023C7F8103129E00023C7F80C3199
:1018E8001CE0D7F82C21531CC7F82C31D7F810115D
:1018F8000B461B015B1A5B01194641F249330B4445
:10190800D7F80C110B44804931F812107D4A22F89F
:101918001310D7F80C310133C7F80C31D7F80C3154
:10192800202BDEDDD7F810310133C7F81031D7F896
:101938001031392BD1DD0023C7F82C310023C7F82B
:10194800083129E00023C7F804311CE0D7F82C211E
:10195800531CC7F82C31D7F808110B461B015B1A2A
:101968005B01194641F223330B44D7F804110B44A9
:10197800634931F81210634A22F81310D7F804317A
:101988000133C7F80431D7F80431202BDEDDD7F84E
:1019980008310133C7F80831D7F80831392BD1DDC0
:1019A8000023C7F82C310023C7F8003129E00023B1
:1019B800C7F8FC301CE0D7F82C21531CC7F82C3191
:1019C800D7F800110B461B015B1A5B01194641F25F
:1019D800FD230B44D7F8FC100B44494931F8121089
:1019E800484A22F81310D7F8FC300133C7F8FC3006
:1019F800D7F8FC30202BDEDDD7F800310133C7F8EB
:101A08000031D7F80031392BD1DD07F59873A3F5EC
:101A180096731B680A2B40F0A5800023C7F8F8309E
:101A280029E00023C7F8F4301CE0D7F82C21531C18
:101A3800C7F82C31D7F8F8100B461B015B1A5B016D
:101A4800194641F249330B44D7F8F4100B442E4998
:101A580031F812102B4A22F81310D7F8F43001335A
:101A6800C7F8F430D7F8F430202BDEDDD7F8F8309B
:101A78000133C7F8F830D7F8F830392BD1DD002317
:101A8800C7F82C310023C7F8F03029E00023C7F845
:101A9800EC301CE0D7F82C21531CC7F82C31D7F8B0
:101AA800F0100B461B015B1A5B01194641F2233308
:101AB8000B44D7F8EC100B44144931F81210114AB2
:101AC80022F81310D7F8EC300133C7F8EC30D7F808
:101AD800EC30202BDEDDD7F8F0300133C7F8F030DA
:101AE800D7F8F030392BD1DD0023C7F82C3100238B
:101AF800C7F8E83032E00023C7F8E43025E000BF3B
:101B08003C4206081C000020F49B060830510608D9
:101B1800D7F82C21531CC7F82C31D7F8E8100B46FE
:101B28001B015B1A5B01194641F2FD230B44D7F8F0
:101B3800E4100B44D24931F81210D24A22F813109B
:101B4800D7F8E4300133C7F8E430D7F8E430202B75
:101B5800DEDDD7F8E8300133C7F8E830D7F8E830E9
:101B6800392BC8DD07F59873A3F596731B68142BFA
:101B780040F09C800023C7F8E03029E00023C7F834
:101B8800DC301CE0D7F82C21531CC7F82C31D7F8CF
:101B9800E0100B461B015B1A5B01194641F2493301
:101BA8000B44D7F8DC100B44B74931F81210B54A8A
:101BB80022F81310D7F8DC300133C7F8DC30D7F837
:101BC800DC30202BDEDDD7F8E0300133C7F8E03019
:101BD800D7F8E030392BD1DD0023C7F82C310023AA
:101BE800C7F8D83029E00023C7F8D4301CE0D7F86C
:101BF8002C21531CC7F82C31D7F8D8100B461B01E1
:101C08005B1A5B01194641F223330B44D7F8D41011
:101C18000B449E4931F812109A4A22F81310D7F84B
:101C2800D4300133C7F8D430D7F8D430202BDEDDD8
:101C3800D7F8D8300133C7F8D830D7F8D830392B8F
:101C4800D1DD0023C7F82C310023C7F8D03029E0B4
:101C58000023C7F8CC301CE0D7F82C21531CC7F858
:101C68002C31D7F8D0100B461B015B1A5B011946C3
:101C780041F2FD230B44D7F8CC100B44804931F8CE
:101C88001210804A22F81310D7F8CC300133C7F865
:101C9800CC30D7F8CC30202BDEDDD7F8D03001336C
:101CA800C7F8D030D7F8D030392BD1DD07F5987385
:101CB800A3F596731B681E2B40F09C800023C7F881
:101CC800C83029E00023C7F8C4301CE0D7F82C211D
:101CD800531CC7F82C31D7F8C8100B461B015B1AE8
:101CE8005B01194641F249330B44D7F8C4100B4441
:101CF800654931F81210634A22F81310D7F8C43036
:101D08000133C7F8C430D7F8C430202BDEDDD7F84C
:101D1800C8300133C7F8C830D7F8C830392BD1DDFF
:101D28000023C7F82C310023C7F8C03029E000236E
:101D3800C7F8BC301CE0D7F82C21531CC7F82C314D
:101D4800D7F8C0100B461B015B1A5B01194641F21C
:101D580023330B44D7F8BC100B444D4931F812100B
:101D6800484A22F81310D7F8BC300133C7F8BC3002
:101D7800D7F8BC30202BDEDDD7F8C0300133C7F8E8
:101D8800C030D7F8C030392BD1DD0023C7F82C314B
:101D98000023C7F8B83029E00023C7F8B4301CE0A6
:101DA800D7F82C21531CC7F82C31D7F8B8100B469C
:101DB8001B015B1A5B01194641F2FD230B44D7F85E
:101DC800B4100B442E4931F812102E4A22F8131081
:101DD800D7F8B4300133C7F8B430D7F8B430202B73
:101DE800DEDDD7F8B8300133C7F8B830D7F8B830E7
:101DF800392BD1DD07F59873A3F596731B68282B4B
:101E080040F0A7800023C7F8B03029E00023C7F8C6
:101E1800AC301CE0D7F82C21531CC7F82C31D7F86C
:101E2800B0100B461B015B1A5B01194641F249339E
:101E38000B44D7F8AC100B44134931F81210114A6F
:101E480022F81310D7F8AC300133C7F8AC30D7F804
:101E5800AC30202BDEDDD7F8B0300133C7F8B03016
:101E6800D7F8B030392BD1DD0023C7F82C31002347
:101E7800C7F8A83034E00023C7F8A43027E000BF33
:101E88003C4206081C000020F49B0608008D06084A
:101E98000C7E0608D7F82C21531CC7F82C31D7F82C
:101EA800A8100B461B015B1A5B01194641F223334C
:101EB8000B44D7F8A4100B44C44931F81210C44A93
:101EC80022F81310D7F8A4300133C7F8A430D7F894
:101ED800A430202BDEDDD7F8A8300133C7F8A830AE
:101EE800D7F8A830392BC6DD0023C7F82C310023DA
:101EF800C7F8A03029E00023C7F89C301CE0D7F8C9
:101F08002C21531CC7F82C31D7F8A0100B461B0105
:101F18005B1A5B01194641F2FD230B44D7F89C106C
:101F28000B44AC4931F81210A94A22F81310D7F81B
:101F38009C300133C7F89C30D7F89C30202BDEDD6D
:101F4800D7F8A0300133C7F8A030D7F8A030392B24
:101F5800D1DD07F59873A3F596731B68322B40F013
:101F68009C800023C7F8983029E00023C7F89430F4
:101F78001CE0D7F82C21531CC7F82C31D7F898103F
:101F88000B461B015B1A5B01194641F249330B44AE
:101F9800D7F894100B44904931F812108C4A22F863
:101FA8001310D7F894300133C7F89430D7F8943029
:101FB800202BDEDDD7F898300133C7F89830D7F8F2
:101FC8009830392BD1DD0023C7F82C310023C7F80E
:101FD800903029E00023C7F88C301CE0D7F82C217A
:101FE800531CC7F82C31D7F890100B461B015B1A0D
:101FF8005B01194641F223330B44D7F88C100B448C
:10200800764931F81210724A22F81310D7F88C303A
:102018000133C7F88C30D7F88C30202BDEDDD7F8A9
:1020280090300133C7F89030D7F89030392BD1DD94
:102038000023C7F82C310023C7F8883029E0002393
:10204800C7F884301CE0D7F82C21531CC7F82C3172
:10205800D7F888100B461B015B1A5B01194641F241
:10206800FD230B44D7F884100B445A4931F8121059
:10207800574A22F81310D7F884300133C7F8843050
:10208800D7F88430202BDEDDD7F888300133C7F845
:102098008830D7F88830392BD1DD07F59873A3F548
:1020A80096731B683C2B40F083800023C7F8803070
:1020B80024E00023FB6719E0D7F82C21531CC7F84C
:1020C8002C31D7F880100B461B015B1A5B011946AF
:1020D80041F249330B44F96F0B443F4931F8121070
:1020E8003B4A22F81310FB6F0133FB67FB6F202B71
:1020F800E2DDD7F880300133C7F88030D7F8803078
:10210800392BD6DD0023C7F82C310023BB6721E02B
:1021180000237B6718E0D7F82C21531CC7F82C3113
:10212800B96F0B461B015B1A5B01194641F2233359
:102138000B44796F0B442A4931F81210244A22F8CB
:1021480013107B6F01337B677B6F202BE3DDBB6F45
:102158000133BB67BB6F392BDADD0023C7F82C319D
:1021680000233B6721E00023FB6618E0D7F82C2109
:10217800531CC7F82C31396F0B461B015B1A5B01E6
:10218800194641F2FD230B44F96E0B44114931F80D
:1021980012100F4A22F81310FB6E0133FB66FB6E18
:1021A800202BE3DD3B6F01333B673B6F392BDADDD7
:1021B80007F59873A3F596731B68462B40F08A8041
:1021C8000023BB662DE000237B6624E05424060828
:1021D8001C0000203C420608F49B0608601506080F
:1021E800186F0608D7F82C21531CC7F82C31B96E84
:1021F8000B461B015B1A5B01194641F249330B443C
:10220800796E0B44964931F81210964A22F8131049
:102218007B6E01337B667B6E202BE3DDBB6E013367
:10222800BB66BB6E392BCEDD0023C7F82C310023EB
:102238003B6621E00023FB6518E0D7F82C21531CEE
:10224800C7F82C31396E0B461B015B1A5B01194626
:1022580041F223330B44F96D0B44834931F81210D2
:10226800804A22F81310FB6D0133FB65FB6D202BB0
:10227800E3DD3B6E01333B663B6E392BDADD002331
:10228800C7F82C310023BB6521E000237B6518E0EB
:10229800D7F82C21531CC7F82C31B96D0B461B01FC
:1022A8005B1A5B01194641F2FD230B44796D0B441F
:1022B8006E4931F812106B4A22F813107B6D013306
:1022C8007B657B6D202BE3DDBB6D0133BB65BB6D8F
:1022D800392BDADD07F59873A3F596731B68502B35
:1022E8007DD100233B6521E00023FB6418E0D7F88B
:1022F8002C21531CC7F82C31396D0B461B015B1A76
:102308005B01194641F249330B44F96C0B445449BB
:1023180031F81210534A22F81310FB6C0133FB6496
:10232800FB6C202BE3DD3B6D01333B653B6D392BAB
:10233800DADD0023C7F82C310023BB6421E0002339
:102348007B6418E0D7F82C21531CC7F82C31B96CE2
:102358000B461B015B1A5B01194641F223330B4400
:10236800796C0B44424931F812103E4A22F8131096
:102378007B6C01337B647B6C202BE3DDBB6C01330E
:10238800BB64BB6C392BDADD0023C7F82C31002382
:102398003B6421E00023FB6318E0D7F82C21531C91
:1023A800C7F82C31396C0B461B015B1A5B011946C7
:1023B80041F2FD230B44F96B0B442C4931F8121000
:1023C800284A22F81310FB6B0133FB63FB6B202BAD
:1023D800E3DD3B6C01333B643B6C392BDADD07F5FD
:1023E8009873A3F596731B685A2B40F0D880002386
:1023F800BB6321E000237B6318E0D7F82C21531C32
:10240800C7F82C31B96B0B461B015B1A5B011946E7
:1024180041F249330B44796B0B44114931F81210DE
:10242800104A22F813107B6B01337B637B6B202BE4
:10243800E3DDBB6B0133BB63BB6B392BDADD0023F8
:10244800C7F82C3107F59873A3F5807300221A603A
:102458004BE007F59873A3F5827300221A6032E007
:10246800F49B06081C000020246006083C4206086D
:10247800E8AA0608D7F82C21531CC7F82C3107F511
:102488009873A3F5807319680B461B015B1A5B01EF
:10249800194641F223330B4407F59871A1F582716F
:1024A80009680B44C54931F81210C54A22F81310BF
:1024B80007F59873A3F5827307F59872A2F58272EF
:1024C800126801321A6007F59873A3F582731B68C6
:1024D800202BCFDD07F59873A3F5807307F5987265
:1024E800A2F58072126801321A6007F59873A3F595
:1024F80080731B68392BACDD0023C7F82C3107F536
:102508009873A3F5847300221A6041E007F5987365
:10251800A3F5867300221A6028E0D7F82C21531CF3
:10252800C7F82C3107F59873A3F5847319680B461F
:102538001B015B1A5B01194641F2FD230B4407F5A9
:102548009871A1F5867109680B449E4931F81210FB
:102558009B4A22F8131007F59873A3F5867307F5BD
:102568009872A2F58672126801321A6007F598739C
:10257800A3F586731B68202BCFDD07F59873A3F5A9
:10258800847307F59872A2F58472126801321A6092
:1025980007F59873A3F584731B68392BB6DD07F527
:1025A8009873A3F596731B68642B40F0F68007F5C3
:1025B8009873A3F5887300221A6041E007F59873B1
:1025C800A3F58A7300221A6028E0D7F82C21531C3F
:1025D800C7F82C3107F59873A3F5887319680B466B
:1025E8001B015B1A5B01194641F249330B4407F59D
:1025F8009871A1F58A7109680B44734931F8121072
:102608006F4A22F8131007F59873A3F58A7307F534
:102618009872A2F58A72126801321A6007F59873E7
:10262800A3F58A731B68202BCFDD07F59873A3F5F4
:10263800887307F59872A2F58872126801321A60D9
:1026480007F59873A3F588731B68392BB6DD00234B
:10265800C7F82C3107F59873A3F58C7300221A601C
:1026680041E007F59873A3F58E7300221A6028E0FD
:10267800D7F82C21531CC7F82C3107F59873A3F50C
:102688008C7319680B461B015B1A5B01194641F2F2
:1026980023330B4407F59871A1F58E7109680B4433
:1026A800494931F81210464A22F8131007F5987371
:1026B800A3F58E7307F59872A2F58E72126801322F
:1026C8001A6007F59873A3F58E731B68202BCFDD6E
:1026D80007F59873A3F58C7307F59872A2F58C72B9
:1026E800126801321A6007F59873A3F58C731B689A
:1026F800392BB6DD0023C7F82C3107F59873A3F5FD
:10270800907300221A6041E007F59873A3F592735D
:1027180000221A6028E0D7F82C21531CC7F82C3166
:1027280007F59873A3F5907319680B461B015B1A9C
:102738005B01194641F2FD230B4407F59871A1F599
:10274800927109680B44214931F812101C4A22F889
:10275800131007F59873A3F5927307F59872A2F50D
:102768009272126801321A6007F59873A3F5927392
:102778001B68202BCFDD07F59873A3F5907307F539
:102788009872A2F59072126801321A6007F5987370
:10279800A3F590731B68392BB6DD0D4B084A9A6276
:1027A8000C4B5B6A0B4A43F00203536200BF07F508
:1027B8009A77BD465DF8047B704700BF483306082A
:1027C8001C0000203C420608F49B0608305106080D
:1027D800046901400068014080B489B000AF7860A6
:1027E8000023FB617B68002B26D00023BB611FE020
:1027F80000237B6116E0FA69531CFB61B9690B463B
:102808001B015B1A5B0119464FF2A9430B44796916
:102818000B44244931F81210234A22F813107B691B
:1028280001337B617B690E2BE5DDBB690133BB613D
:10283800BB69592BDCDD25E000233B611FE0002349
:10284800FB6016E0FA69531CFB6139690B461B01F2
:102858005B1A5B0119464FF2A9430B44F9680B4414
:10286800124931F81210104A22F81310FB6801338C
:10287800FB60FB680E2BE5DD3B6901333B613B697F
:10288800592BDCDD0A4B084A9A620A4B5B6A094AF3
:1028980043F00203536200BF2437BD465DF8047B52
:1028A800704700BFDCB906081C00002068C4060891
:1028B800046901400068014080B500AF424B1B78B5
:1028C80003F00803002B74D0404B1B78002B64D115
:1028D8003F4B1B78002B4AD13E4B1B78002B27D14E
:1028E8003C4B09221A703A4B05221A70374B0922C1
:1028F8001A70394B1B78013BDAB2374B1A70364BDA
:102908001B7819460120FEF73FFD324B1B7819460C
:102918000220FEF739FD2E4B1B7819460320FEF7DF
:1029280033FD2A4B1B7819460420FEF72DFD40E0A5
:10293800274B05221A70254B09221A70254B1B7844
:10294800013BDAB2234B1A70224B1B78194602203E
:10295800FEF71AFD1E4B1B7819460320FEF714FDDF
:102968001A4B1B7819460420FEF70EFD21E0174B81
:1029780009221A70164B1B78013BDAB2144B1A70F5
:10298800134B1B7819460320FEF7FEFC0F4B1B78F0
:1029980019460420FEF7F8FC0BE00C4B1B78013BB2
:1029A800DAB20A4B1A70094B1B7819460420FEF755
:1029B800EBFC4FF080431B694FF0804223F001038A
:1029C800136100BF80BD00BF48FC032050FC0320FA
:1029D80051FC032052FC032053FC032080B500AFB8
:1029E800A04B1B6801339F4A13609E4B1B689E4A8D
:1029F800934231D19D4B1B7803F00103002B2BD060
:102A0800984B00221A60994B1B7803F02003002B87
:102A18000FD10A210320FEF79FFA0A210420FEF7AE
:102A28009BFA924B1B7843F02003DAB28F4B1A7053
:102A380012E08F4B1B7819460320FEF78DFA8D4B59
:102A48001B7819460420FEF787FA884B1B7823F079
:102A58002003DAB2854B1A70824B1B68824A934274
:102A680031D1824B1B7803F00203002B2BD07D4B16
:102A780000221A607D4B1B7803F01003002B0FD146
:102A88000A210120FEF768FA0A210220FEF764FAFB
:102A9800764B1B7843F01003DAB2744B1A7012E0CD
:102AA800754B1B7819460120FEF756FA734B1B78B5
:102AB80019460220FEF750FA6C4B1B7823F01003DE
:102AC800DAB26A4B1A70674B1B68674A934225D182
:102AD800664B1B7803F00403002B1FD0614B0022C8
:102AE8001A60624B1B7803F04003002B0AD1C82000
:102AF800FEF738FE5D4B1B7843F04003DAB25B4BC0
:102B08001A700BE05E4B1B781846FEF72BFE574BEE
:102B18001B7823F04003DAB2544B1A70514B1B68F0
:102B2800584A93421FD1514B1B7803F00803002BDE
:102B380019D04E4B1B785BB2002B0ADA4B4B1B7833
:102B480003F07F03DAB2494B1A700020FFF744FE06
:102B580009E0464B1B7863F07F03DAB2434B1A70E7
:102B68000120FFF739FE484B1B78002B60D1474BFB
:102B78001B78002B5CD1464B1B78002B58D1454B5A
:102B88001B78002B54D1394B1B7803F00803002B1A
:102B98004ED0414B00221A70404B00221A70404B15
:102BA80000221A703F4B00221A703F4B00221A7005
:102BB8000620FDF725FB0820FDF722FB0A20FDF77C
:102BC8001FFB1720FDF71CFB2820FDF719FB274BDF
:102BD8001B7823F00103DAB2244B1A70234B1B78BD
:102BE80023F00203DAB2214B1A70204B1B7823F032
:102BF8000403DAB21D4B1A701C4B1B7823F0080330
:102C0800DAB21A4B1A70294B00225A634FF08043EC
:102C18001B684FF0804223F0010313604FF080439C
:102C280000225A62224B00225A63224B00221A6069
:102C3800214B1B6903F02003002B08D11F4B1B6994
:102C480003F40043002B02D1194B28225A63054B89
:102C58001B681B4A934202D1024B00221A6000BF34
:102C680080BD00BF4CFC0320A086010048FC032067
:102C780055FC032054FC032057FC032056FC03207A
:102C880059FC0320F049020053FC032052FC0320A6
:102C980051FC032050FC03201CFC03201DFC0320D6
:102CA8001EFC03201FFC032020FC0320000400401E
:102CB8000020004044FC0320001802400014024099
:102CC800F149020080B487B000AF844B1B6903F060
:102CD8000103002B00F0FC80804B1B697F4A23F026
:102CE800010313617E4B1B6903F40043002B22D1BF
:102CF8007B4B1B6903F400437B617A4B1B78DBB287
:102D08001A467B69934203D0774B00221A6004E08D
:102D1800754B1B680133744A1360734B1B68092B8E
:102D280005D9724B01221A706F4B00221A607B6919
:102D3800DAB26C4B1A706E4B1B6903F00103002B5F
:102D480022D16B4B1B6903F001033B61694B1B7874
:102D5800DBB21A463B69934203D0674B00221A60E4
:102D680004E0654B1B680133634A1360624B1B68C0
:102D7800092B05D9614B01221A705F4B00221A609A
:102D88003B69DAB25B4B1A705D4B1B6903F00403B5
:102D9800002B22D15A4B1B6903F00403FB60594BEB
:102DA8001B78DBB21A46FB68934203D0564B0022CD
:102DB8001A6004E0544B1B680133534A1360524BAA
:102DC8001B68092B05D9514B01221A704E4B002262
:102DD8001A60FB68DAB24B4B1A70454B1B6903F05B
:102DE8001003002B22D1424B1B6903F01003BB6078
:102DF800474B1B78DBB21A46BB68934203D0454B5E
:102E080000221A6004E0434B1B680133414A1360F7
:102E1800404B1B68092B05D93F4B01221A703D4BCB
:102E280000221A60BB68DAB2394B1A70344B1B693E
:102E380003F02003002B22D1314B1B6903F0200340
:102E48007B60364B1B78DBB21A467B68934203D013
:102E5800334B00221A6004E0314B1B680133304ABF
:102E680013602F4B1B68092B05D92E4B01221A70B2
:102E78002B4B00221A607B68DAB2284B1A702A4B57
:102E88001B6903F48073002B22D1274B1B6903F4C1
:102E980080733B60254B1B78DBB21A463B68934234
:102EA80003D0234B00221A6004E0214B1B68013336
:102EB8001F4A13601E4B1B68092B05D91D4B0122A5
:102EC8001A701B4B00221A603B68DAB2174B1A7053
:102ED80000BF1C37BD465DF8047B70470008004002
:102EE8000014024041FC032038FC032021FC03208D
:102EF800000C02403FFC032030FC03201FFC032091
:102F0800001802403DFC032028FC03201DFC032080
:102F180040FC032034FC032020FC03203EFC03205B
:102F28002CFC03201EFC0320001002403CFC032064
:102F380024FC03201CFC032080B584B000AF0023D0
:102F4800FB739B4B00225A629A4B1B6903F00103E7
:102F5800002B1AD1984B1B78DBB2012B15D1FB7BC8
:102F68000133FB73944B00221A70944B64225A630A
:102F78000023BB6002E0BB680133BB60BB68904ABA
:102F88009342F8DD8D4B00225A638E4B1B7803F079
:102F98000803002B40F0F8808A4B1B7803F00103EC
:102FA800002B40F0F180874B1B7803F00203002BC5
:102FB80040F0EA80834B1B7803F00403002B40F0B9
:102FC800E380FB7B012B40F0DF807F4B00225A63BC
:102FD8007E4B1B78032B02D17C4B00221A707B4B53
:102FE8001B78022B42D1794B03221A70784B0022AE
:102FF8001A70784B00221A70774B00221A70774BA0
:1030080000221A70764B00221A70714B1A78754B91
:103018001A70704B1A78744B1A706F4B1A78734B7E
:103028001A706E4B1A78724B1A706D4B1A78714B76
:103038001A70674B1B7819460120FDF78DFF654B09
:103048001B7819460220FDF787FF634B1B7819464A
:103058000320FDF781FF614B1B7819460420FDF71B
:103068007BFF5F4B1B781846FEF77CFB574B1B78A2
:10307800012B42D1554B02221A70554B02221A706D
:10308800544B05221A70544B03221A70534B0022DA
:103098001A70534B64221A704D4B1A78514B1A70A0
:1030A8004C4B1A78504B1A704B4B1A784F4B1A707E
:1030B8004A4B1A784E4B1A70494B1A784D4B1A7076
:1030C800434B1B7819460120FDF746FF414B1B78FF
:1030D80019460220FDF740FF3F4B1B781946032095
:1030E800FDF73AFF3D4B1B7819460420FDF734FFE6
:1030F8003B4B1B781846FEF735FB344B1B78002BEF
:1031080042D1324B01221A70314B00221A70314BD6
:1031180001221A70304B00221A70304B00221A70AC
:103128002F4B32221A702A4B1A782E4B1A70294BC1
:103138001A782D4B1A70284B1A782C4B1A70274B7B
:103148001A782B4B1A70264B1A782A4B1A70204B78
:103158001B7819460120FDF7FFFE1E4B1B78194608
:103168000220FDF7F9FE1C4B1B7819460320FDF7DA
:10317800F3FE1A4B1B7819460420FDF7EDFE184B99
:103188001B781846FEF7EEFA00237B6002E07B68A6
:1031980001337B607B68184A9342F8DD174B5B6903
:1031A800164A43F00103536100BF1037BD4680BD86
:1031B80000080040000C02401FFC032000480140AA
:1031C8003F0D030048FC0320002000405AFC032068
:1031D80057FC032056FC032055FC032054FC032015
:1031E80059FC032053FC032052FC032051FC03200C
:1031F80050FC032058FC032080EE3600003C0140C0
:1032080080B584B000AF0023FB73664B00225A627E
:10321800654B1B6903F00403002B1AD1634B1B7821
:10322800DBB2012B15D1624B64225A630023BB60C9
:1032380002E0BB680133BB60BB685E4A9342F8DDBD
:103248005B4B00225A63FB7B0133FB73574B002215
:103258001A70FB7B012B40F09180574B00225A6378
:10326800564B00225A634FF080431B684FF0804250
:1032780023F0010313604FF0804300225A62504B41
:103288001B7823F00103DAB24D4B1A704C4B1B78B4
:1032980023F00203DAB24A4B1A70494B1B7823F029
:1032A8000403DAB2464B1A70454B1B7823F0080327
:1032B800DAB2434B1A70424B1B7803F07F03DAB241
:1032C8003F4B1A700120FFF787FA3E4B00221A7015
:1032D8003D4B00221A703D4B00221A603C4B0022E5
:1032E8001A703C4B00221A703B4B00221A703B4B61
:1032F80000221A703A4B00221A703A4B00221A70B8
:10330800394B00221A70394B00221A70384B0022B0
:103318001A70384B00221A70324B00221A700021A2
:103328000120FEF731F800210220FEF72DF80021D8
:103338000320FEF729F800210420FEF725F80021D4
:103348000120FDF709FE00210220FDF705FE0021FE
:103358000320FDF701FE00210420FDF7FDFD0020FC
:10336800FEF700FA0120FFF737FA0620FCF748FFBE
:103378000A20FCF745FF1720FCF742FF00237B607B
:1033880002E07B6801337B607B681B4A9342F8DD6F
:103398001A4B5B69194A43F00403536100BF1037A5
:1033A800BD4680BD00080040001802401DFC0320F7
:1033B800004801403F0D0300000400400020004089
:1033C80048FC03201FFC032020FC032044FC0320AE
:1033D80058FC032050FC032051FC032052FC03201E
:1033E80053FC032059FC032054FC032055FC032004
:1033F80056FC032057FC032080EE3600003C0140B9
:1034080080B485B000AF0023FB73614B00225A6281
:10341800604B1B6903F01003002B1AD15E4B1B781D
:10342800DBB2012B15D1FB7B0133FB735A4B002216
:103438001A705A4B64225A630023BB6002E0BB68CF
:103448000133BB60BB68564A9342F8DD534B0022F8
:103458005A63FB7B012B40F08480524B1B7803F0AE
:103468000203002B33D0504B1B781A464F4B1B7866
:103478001344002B2BD04D4B1B78002B09D14A4B02
:103488001B78013BDAB2484B1A70484B09221A7074
:103498001DE0464B1B78002B13D1434B1B78002BA8
:1034A80009D0414B1B78013BDAB23F4B1A703F4BB6
:1034B80009221A7005E03D4B00221A703A4B00228F
:1034C8001A703A4B1B78013BDAB2384B1A70354BFD
:1034D8001B7803F00103002B33D0354B1B781A46B9
:1034E800344B1B781344002B2BD0314B1B78002B0B
:1034F80009D1304B1B78013BDAB22E4B1A702C4B9A
:1035080009221A701DE02A4B1B78002B13D1294B76
:103518001B78002B09D0274B1B78013BDAB2254BCF
:103528001A70234B09221A7005E0214B00221A70E9
:10353800204B00221A701E4B1B78013BDAB21C4B41
:103548001A70184B1B7803F00403002B09D01A4B90
:103558001B78002B05D0184B1B780A3BDAB2164BA8
:103568001A7000237B6002E07B6801337B607B6814
:10357800124A9342F8DD124B5B69114A43F010037B
:10358800536100BF1437BD465DF8047B704700BF28
:1035980000080040000C024020FC032000480140C5
:1035A8003F0D030048FC032057FC032056FC032072
:1035B80054FC032055FC032059FC032080EE360000
:1035C800003C014080B586B000AF854B5B6903F0D5
:1035D8002003002B00F0E180824B00225A62002376
:1035E800FB75814B1B6903F02003002B1AD17F4B1D
:1035F8001B78DBB2012B15D1FB7D0133FB757B4BAF
:1036080000221A707A4B64225A6300233B6102E05D
:103618003B6901333B613B69764A9342F8DD744B61
:1036280000225A63744B1B7803F00803002B0CBF6D
:1036380001230023DAB2FB7D012B0CBF01230023F9
:10364800DBB21340DBB2002B00F097806A4B1B788B
:1036580003F00703022B49D0022B6FDC002B02D0AA
:10366800012B14D06AE0644B1B7843F00103DAB2F3
:10367800614B1A70614B1B7819460320FDF76CFCEF
:103688005F4B1B7819460420FDF766FC75E05A4B22
:103698001B7843F00203DAB2574B1A70564B1B786B
:1036A80023F00103DAB2544B1A70544B1B781946B5
:1036B8000320FDF751FC524B1B7819460420FDF7F7
:1036C8004BFC4F4B1A784F4B1A704C4B1A784E4B99
:1036D8001A704E4B1B7819460120FDF73DFC4C4BE8
:1036E8001B7819460220FDF737FC46E0424B1B7851
:1036F80043F00403DAB2404B1A703F4B1B7823F0B7
:103708000203DAB23C4B1A70404B1B781946012071
:10371800FDF722FC3E4B1B7819460220FDF71CFCE6
:103728003B4B1A783B4B1A70384B1A783A4B1A7045
:103738003A4B1B781846FEF715F81EE02E4B1B78FF
:1037480023F00103DAB22C4B1A702B4B1B7823F0B1
:103758000203DAB2284B1A70274B1B7823F00403B4
:10376800DAB2254B1A702D4B1A782D4B1A702B4B49
:103778001B781846FDF7F6FF00BF0023FB6002E048
:10378800FB680133FB60FB68264A9342F8DD144B63
:103798005B69134A43F020035361114B5B6903F4DF
:1037A8008073002B00F0B3800E4B00225A62002376
:1037B800FB721D4B1B6903F48073002B42D11B4B1A
:1037C8001B78DBB2012B3DD1FB7A0133FB72174B1F
:1037D80000221A70064B64225A6300237B602AE099
:1037E800003C014000080040001802401EFC032075
:1037F800004801403F0D030048FC032055FC03200E
:1038080054FC032050FC032051FC032057FC0320E8
:1038180056FC032052FC032053FC032059FC0320D0
:1038280058FC032080EE3600001002401CFC0320E8
:103838007B6801337B607B68374A9342F8DD374BFE
:1038480000225A63FB7A012B51D1354B1B7803F0C8
:103858000203002B1AD0334B1B781A46324B1B78C5
:103868001344122B12D0304B1B780133DAB22E4B93
:103878001A702D4B1B780A2B08D12A4B1B78013361
:10388800DAB2284B1A70284B00221A70244B1B7886
:1038980003F00103002B1AD0244B1B781A46244B43
:1038A8001B781344122B12D0204B1B780133DAB249
:1038B8001E4B1A701D4B1B780A2B08D11C4B1B780A
:1038C8000133DAB21A4B1A70184B00221A70144BD3
:1038D8001B7803F00403002B09D0164B1B78642BCC
:1038E80005D0144B1B780A33DAB2124B1A70002336
:1038F8003B6002E03B6801333B603B680E4A934201
:10390800F8DD0E4B5B690D4A43F48073536100BFC9
:103918001837BD4680BD00BF3F0D03000048014079
:1039280048FC032057FC032056FC032054FC0320CA
:1039380055FC032059FC032080EE3600003C014072
:1039480080B582B000AF674B00225A62664B1B6994
:1039580003F40043002B1CD1644B1B78DBB2012B12
:1039680017D1634B1B680133614A13605F4B002218
:103978001A70604B64225A6300237B6002E07B6804
:1039880001337B607B685C4A9342F8DD594B002227
:103998005A635A4B1B7803F00803002B5BD1574B33
:1039A8001B7803F00103002B55D1544B1B7803F00F
:1039B8000203002B4FD1514B1B7803F00403002B5B
:1039C80049D14B4B1B68012B45D14C4B1B7843F01D
:1039D8000803DAB2494B1A70484B1B7863F07F032F
:1039E800DAB2464B1A70464B1A78464B5A634FF078
:1039F800804300225A624FF080431B684FF0804298
:103A080043F001031360404B28225A633F4B1B7855
:103A180019460120FDF7B8FC3D4B1B7819460220DA
:103A2800FDF7B2FC3B4B1B7819460320FDF7ACFCB5
:103A3800394B1B7819460420FDF7A6FC374B0022AA
:103A48001A700620FCF7FAFB0A20FCF7F7FB172090
:103A5800FCF7F4FB31E04FF080431B684FF08042E5
:103A680023F0010313604FF0804300225A62264B73
:103A780000225A63234B00225A63204B1B7823F001
:103A88000803DAB21D4B1A701C4B1B7803F07F0336
:103A9800DAB21A4B1A700120FEF79EFE144B002270
:103AA8001A600620FCF7ACFB0820FCF7A9FB0A20EB
:103AB800FCF7A6FB1720FCF7A3FB00233B6002E002
:103AC8003B6801333B603B68154A9342F8DD154B70
:103AD8005B69144A43F40043536100BF0837BD468D
:103AE80080BD00BF000800400014024021FC0320F4
:103AF80044FC0320004801403F0D030048FC03201C
:103B080058FC0320000400400020004053FC032020
:103B180052FC032051FC032050FC03205AFC0320D4
:103B280080EE3600003C014080B582B000AFFCF763
:103B3800D3FB764B764A9A62764B5B6A754A43F0BA
:103B48000203536200237B6002E07B6801337B60E1
:103B58007B68714A9342F8DD6C4B704A9A626D4BF0
:103B68005B6A6C4A43F0020353626D4B1B7819463B
:103B78000120FDF709FC6B4B1B7819460220FDF765
:103B880003FC694B1B7819460320FDF7FDFB674BC7
:103B98001B7819460420FDF7F7FB614B1B78194683
:103BA8000120FDF7D9F95F4B1B7819460220FDF774
:103BB800D3F95D4B1B7819460320FDF7CDF95B4B14
:103BC8001B7819460420FDF7C7F9594B1B7818468E
:103BD800FDF7C8FD574B1B68564A43F001031360B5
:103BE8004FF080431B684FF0804223F001031360BD
:103BF8004FF0804300225A624F4B1B7823F0010399
:103C0800DAB24D4B1A704C4B1B7823F00203DAB230
:103C1800494B1A70484B1B7823F00403DAB2464B21
:103C28001A70454B1B7823F00803DAB2424B1A701E
:103C3800414B1B7803F07F03DAB23F4B1A703F4BBE
:103C480000225A634FF080431B684FF0804223F0F4
:103C5800010313604FF0804300225A62344B002264
:103C68001A70324B00221A702F4B00221A702D4BFB
:103C780000221A702A4B00221A70314B00221A7047
:103C8800304B00221A70304B00221A702F4B002242
:103C98001A702F4B00221A70294B00221A7000212B
:103CA8000120FDF771FB00210220FDF76DFB0021CB
:103CB8000320FDF769FB00210420FDF765FB0021C7
:103CC8000120FDF749F900210220FDF745F90021FF
:103CD8000320FDF741F900210420FDF73DF90020FC
:103CE800FDF740FD0120FEF777FD0620FCF788FA76
:103CF8000820FCF785FA0A20FCF782FA1720FCF75F
:103D08007FFA2820FCF77CFAFEE700BF046901402F
:103D1800F4CE060800680140404B4C00F4CA0A087B
:103D280053FC032052FC032051FC032050FC0320C9
:103D380058FC0320000C004048FC0320000400400D
:103D480059FC032054FC032055FC032056FC032097
:103D580057FC03200D488546AFF300800C480D49F9
:103D68000D4A002302E0D458C4500433C4188C42CE
:103D7800F9D30A4A0A4C002301E013600432A24234
:103D8800FBD300F011F8FFF7CFFEFEE70000052097
:103D98000000002000000020FCC60E0800000020E3
:103DA8005CFC0320FEE7000070B50D4D0D4C641B54
:103DB800A4100026A64209D10B4D0C4C00F018F8AF
:103DC800641BA4100026A64205D170BD55F8043B1B
:103DD80098470136EEE755F8043B98470136F2E775
:103DE800F4C60E08F4C60E08F4C60E08F8C60E0887
:103DF800F8B500BFF8BC08BC9E467047F8B500BFD0
:083E0800F8BC08BC9E4670479F
:103E1000FF07FF07FF07FF07FF07FF07FF07FF0772
:103E20000000000000000000000000000000000092
:103E30000000000000000000000000000000000082
:103E40000000FF07FF07FF07FF07FF07FF07FF0748
:103E5000FF07FF07FF07FF07FF07FF07FF07FF0732
:103E60000000E4E8E4E8E4E8E4E8E4E8E4E8E4E8BE
:103E7000E4E8E4E8E4E8E4E8E4E8E4E8E4E8E4E8E2
:103E8000E4E8E4E80000FF07FF07FF07FF07FF077C
:103E9000FF07FF07FF07FF07FF07FF07FF07FF07F2
:103EA0000000E4E8E4E8E4E8E4E8E4E8E4E8E4E87E
:103EB000E4E8E4E8E4E8E4E8E4E8E4E8E4E8E4E8A2
:103EC000E4E8E4E8E4E8E4E80000FF07FF07FF07B0
:103ED000FF07FF07FF07FF07FF07FF07FF07FF07B2
:103EE0000000E4E8E4E8E4E8E4E8E4E8E4E8E4E83E
:103EF000E4E8E4E8E4E8E4E8E4E8E4E8E4E8E4E862
:103F0000E4E8E4E8E4E8E4E8E4E8E4E80000FF07E3
:103F1000FF07FF07FF07FF07FF07FF07FF07FF0771
:103F2000FF070000E4E8E4E8E4E8E4E8E4E8E4E8C3
:103F3000E4E8E4E8E4E8E4E8E4E8E4E8E4E8E4E821
:103F4000E4E8E4E8E4E8E4E8E4E8E4E8E4E80000DD
:103F5000FF07FF07FF07FF07FF07FF07FF07FF0731
:103F600000000000FF070000E4E8E4E8E4E8E4E81B
:103F7000E4E8E4E8E4E8E4E8E4E8E4E8E4E8E4E8E1
:103F8000E4E8E4E8E4E8E4E8E4E8E4E8E4E800009D
:103F9000FF07FF07FF07FF07FF07FF07FF07FF07F1
:103FA0000000E4E8E4E80000FF070000E4E8E4E8DB
:103FB000E4E8E4E8E4E8E4E8E4E8E4E8E4E8E4E8A1
:103FC000E4E8E4E8E4E8E4E8E4E8E4E8E4E800005D
:103FD000FF07FF07FF07FF07FF07FF07FF07FF07B1
:103FE0000000E4E8E4E8E4E8E4E80000FF0700009B
:103FF00000000000000000000000000000000000C1
:1040000000000000000000000000000000000000B0
:10401000FF07FF07FF07FF07FF07FF07FF07FF0770
:104020000000E4E8E4E8E4E8E4E8E4E8E4E80000C8
:10403000FF07FF07FF07FF07FF07FF07FF07FF0750
:10404000FF07FF07FF07FF07FF07FF07FF07FF0740
:10405000FF07FF07FF07FF07FF07FF07FF07FF0730
:10406000FF070000E4E8E4E8E4E8E4E8E4E8E4E882
:104070000000FF07FF07FF07FF07FF07FF07FF0716
:10408000FF07FF07FF07FF07FF07FF07FF07FF0700
:10409000FF07FF07FF07FF07FF07FF07FF07FF07F0
:1040A000FF07FF070000E4E8E4E8E4E8E4E8E4E808
:1040B000E4E80000FF07FF07FF07FF07FF07FF0710
:1040C000FF07FF07FF07FF07FF07FF07FF07FF07C0
:1040D000FF07FF07FF07FF07FF07FF07FF07FF07B0
:1040E000FF07FF07FF070000E4E8E4E8E4E8E4E88E
:1040F000E4E8E4E80000FF07FF07FF07FF07FF070A
:10410000FF07FF07FF07FF07FF07FF07FF07FF077F
:10411000FF07FF07FF07FF07FF07FF07FF07FF076F
:10412000FF07FF07FF07FF070000E4E8E4E8E4E813
:10413000E4E8E4E8E4E80000FF07FF07FF07FF0703
:10414000FF07FF07FF07FF07FF07FF07FF07FF073F
:10415000FF07FF07FF07FF07FF07FF07FF07FF072F
:10416000FF07FF07FF07FF07FF070000E4E8E4E899
:10417000E4E8E4E8E4E8E4E80000FF07FF07FF07FD
:10418000FF07FF07FF07FF07FF07FF07FF07FF07FF
:10419000FF07FF07FF07FF07FF07FF07FF07FF07EF
:1041A000FF07FF07FF07FF07FF07FF070000E4E81F
:1041B000E4E8E4E8E4E8E4E8E4E80000FF07FF07F7
:1041C000FF07FF07FF07FF07FF07FF07FF07FF07BF
:1041D000FF07FF07FF07FF07FF07FF07FF07FF07AF
:1041E000FF07FF07FF07FF07FF07FF07FF070000A5
:1041F000E4E8E4E8E4E8E4E8E4E8E4E80000FF07F1
:10420000FF07FF07FF07FF07FF07FF07FF07FF077E
:10421000FF07FF07FF07FF07FF07FF07FF07FF076E
:10422000FF07FF07FF07FF07FF07FF07FF07FF075E
:104230000000E4E8E4E8E4E8E4E8E4E8E4E80000B6
:10424000FF07FF07FF07FF07FF07FF07FF07FF073E
:10425000FF07FF07FF07FF07FF07FF07FF07FF072E
:10426000FF07FF07FF07FF07FF07FF07FF07FF071E
:10427000FF070000E4E8E4E8E4E8E4E8E4E8E4E870
:104280000000FF07FF07FF07FF07FF07FF07FF0704
:10429000FF07FF07FF07FF07FF07FF07FF07FF07EE
:1042A000FF07FF07FF07FF07FF07FF07FF07FF07DE
:1042B000FF07FF070000E4E8E4E8E4E8E4E8E4E8F6
:1042C000E4E80000FF07FF07FF07FF07FF07FF07FE
:1042D000FF07FF07FF07FF07FF07FF07FF07FF07AE
:1042E000FF07FF07FF07FF07FF07FF07FF07FF079E
:1042F000FF07FF07FF070000E4E8E4E8E4E8E4E87C
:10430000E4E8E4E80000FF07FF07FF07FF07FF07F7
:10431000FF07FF07FF07FF07FF07FF07FF07FF076D
:10432000FF07FF07FF07FF07FF07FF07FF07FF075D
:10433000FF07FF07FF07FF070000E4E8E4E8E4E801
:10434000E4E8E4E8E4E80000FF07FF07FF07FF07F1
:10435000FF07FF07FF07FF07FF07FF07FF07FF072D
:10436000FF07FF07FF07FF07FF07FF07FF07FF071D
:10437000FF07FF07FF07FF07FF070000E4E8E4E887
:10438000E4E8E4E8E4E8E4E80000FF07FF07FF07EB
:10439000FF07FF07FF07FF07FF07FF07FF07FF07ED
:1043A000FF07FF07FF07FF07FF07FF07FF07FF07DD
:1043B000FF07FF07FF07FF07FF07FF070000E4E80D
:1043C000E4E8E4E8E4E8E4E8E4E80000FF07FF07E5
:1043D000FF07FF07FF07FF07FF07FF07FF07FF07AD
:1043E000FF07FF07FF07FF07FF07FF07FF07FF079D
:1043F000FF07FF07FF07FF07FF07FF07FF07000093
:10440000E4E8E4E8E4E8E4E8E4E8E4E80000FF07DE
:10441000FF07FF07FF07FF07FF07FF07FF07FF076C
:10442000FF07FF07FF07FF07FF07FF07FF07FF075C
:10443000FF07FF07FF07FF07FF07FF07FF07FF074C
:104440000000E4E8E4E8E4E8E4E8E4E8E4E80000A4
:10445000FF07FF07FF07FF07FF07FF07FF07FF072C
:10446000FF07FF07FF07FF07FF07FF07FF07FF071C
:10447000FF07FF07FF07FF07FF07FF07FF07FF070C
:10448000FF07FF070000E4E8E4E8E4E8E4E80000F0
:10449000FF07000000000000000000000000000016
:1044A000000000000000000000000000000000000C
:1044B00000000000FF07FF07FF07FF07FF07FF07D8
:1044C000FF07FF07FF07FF070000E4E8E4E800003C
:1044D000FF070000E4E8E4E8E4E8E4E8E4E8E4E80E
:1044E000E4E8E4E8E4E8E4E8E4E8E4E8E4E8E4E86C
:1044F000E4E8E4E8E4E80000FF07FF07FF07FF0740
:10450000FF07FF07FF07FF07FF07FF070000000087
:10451000FF070000E4E8E4E8E4E8E4E8E4E8E4E8CD
:10452000E4E8E4E8E4E8E4E8E4E8E4E8E4E8E4E82B
:10453000E4E8E4E8E4E8E4E8E4E80000FF07FF0773
:10454000FF07FF07FF07FF07FF07FF07FF07FF073B
:10455000FF070000E4E8E4E8E4E8E4E8E4E8E4E88D
:10456000E4E8E4E8E4E8E4E8E4E8E4E8E4E8E4E8EB
:10457000E4E8E4E8E4E8E4E8E4E8E4E8E4E80000A7
:10458000FF07FF07FF07FF07FF07FF07FF07FF07FB
:10459000FF07FF070000E4E8E4E8E4E8E4E8E4E813
:1045A000E4E8E4E8E4E8E4E8E4E8E4E8E4E8E4E8AB
:1045B000E4E8E4E8E4E8E4E8E4E8E4E8E4E8E4E89B
:1045C0000000FF07FF07FF07FF07FF07FF07FF07C1
:1045D000FF07FF07FF07FF070000E4E8E4E8E4E85F
:1045E000E4E8E4E8E4E8E4E8E4E8E4E8E4E8E4E86B
:1045F000E4E8E4E8E4E8E4E8E4E8E4E8E4E8E4E85B
:104600000000FF0700000000FF07FF07FF07FF078C
:10461000FF07FF07FF07FF07FF07FF070000E4E8AA
:10462000E4E8E4E8E4E8E4E8E4E8E4E8E4E8E4E82A
:10463000E4E8E4E8E4E8E4E8E4E8E4E8E4E8E4E81A
:104640000000FF070000E4E8E4E80000FF07FF07C0
:10465000FF07FF07FF07FF07FF07FF07FF07FF072A
:10466000000000000000000000000000000000004A
:10467000000000000000000000000000000000003A
:104680000000FF070000E4E8E4E8E4E8E4E80000F4
:10469000FF07FF07FF07FF07FF07FF07FF07FF07EA
:1046A000FF07FF07FF07FF07FF07FF07FF07FF07DA
:1046B000FF07FF07FF07FF07FF07FF07FF07FF07CA
:1046C000FF07FF070000E4E8E4E8E4E8E4E8E4E8E2
:1046D000E4E80000FF07FF07FF07FF07FF07FF07EA
:1046E000FF07FF07FF07FF07FF07FF07FF07FF079A
:1046F000FF07FF07FF07FF07FF07FF07FF07FF078A
:10470000FF07FF07FF070000E4E8E4E8E4E8E4E867
:10471000E4E8E4E80000FF07FF07FF07FF07FF07E3
:10472000FF07FF07FF07FF07FF07FF07FF07FF0759
:10473000FF07FF07FF07FF07FF07FF07FF07FF0749
:10474000FF07FF07FF07FF070000E4E8E4E8E4E8ED
:10475000E4E8E4E8E4E80000FF07FF07FF07FF07DD
:10476000FF07FF07FF07FF07FF07FF07FF07FF0719
:10477000FF07FF07FF07FF07FF07FF07FF07FF0709
:10478000FF07FF07FF07FF07FF070000E4E8E4E873
:10479000E4E8E4E8E4E8E4E80000FF07FF07FF07D7
:1047A000FF07FF07FF07FF07FF07FF07FF07FF07D9
:1047B000FF07FF07FF07FF07FF07FF07FF07FF07C9
:1047C000FF07FF07FF07FF07FF07FF070000E4E8F9
:1047D000E4E8E4E8E4E8E4E8E4E80000FF07FF07D1
:1047E000FF07FF07FF07FF07FF07FF07FF07FF0799
:1047F000FF07FF07FF07FF07FF07FF07FF07FF0789
:10480000FF07FF07FF07FF07FF07FF07FF0700007E
:10481000E4E8E4E8E4E8E4E8E4E8E4E80000FF07CA
:10482000FF07FF07FF07FF07FF07FF07FF07FF0758
:10483000FF07FF07FF07FF07FF07FF07FF07FF0748
:10484000FF07FF07FF07FF07FF07FF07FF07FF0738
:104850000000E4E8E4E8E4E8E4E8E4E8E4E8000090
:10486000FF07FF07FF07FF07FF07FF07FF07FF0718
:10487000FF07FF07FF07FF07FF07FF07FF07FF0708
:10488000FF07FF07FF07FF07FF07FF07FF07FF07F8
:10489000FF070000E4E8E4E8E4E8E4E8E4E8E4E84A
:1048A0000000FF07FF07FF07FF07FF07FF07FF07DE
:1048B000FF07FF07FF07FF07FF07FF07FF07FF07C8
:1048C000FF07FF07FF07FF07FF07FF07FF07FF07B8
:1048D000FF07FF070000E4E8E4E8E4E8E4E8E4E8D0
:1048E000E4E80000FF07FF07FF07FF07FF07FF07D8
:1048F000FF07FF07FF07FF07FF07FF07FF07FF0788
:10490000FF07FF07FF07FF07FF07FF07FF07FF0777
:10491000FF07FF07FF070000E4E8E4E8E4E8E4E855
:10492000E4E8E4E80000FF07FF07FF07FF07FF07D1
:10493000FF07FF07FF07FF07FF07FF07FF07FF0747
:10494000FF07FF07FF07FF07FF07FF07FF07FF0737
:10495000FF07FF07FF07FF070000E4E8E4E8E4E8DB
:10496000E4E8E4E8E4E80000FF07FF07FF07FF07CB
:10497000FF07FF07FF07FF07FF07FF07FF07FF0707
:10498000FF07FF07FF07FF07FF07FF07FF07FF07F7
:10499000FF07FF07FF07FF07FF070000E4E8E4E861
:1049A000E4E8E4E8E4E8E4E80000FF07FF07FF07C5
:1049B000FF07FF07FF07FF07FF07FF07FF07FF07C7
:1049C000FF07FF07FF07FF07FF07FF07FF07FF07B7
:1049D000FF07FF07FF07FF07FF07FF070000E4E8E7
:1049E000E4E8E4E8E4E8E4E8E4E80000FF07FF07BF
:1049F000FF07FF07FF07FF07FF07FF07FF07FF0787
:104A0000FF07FF07FF07FF07FF07FF07FF07FF0776
:104A1000FF07FF07FF07FF07FF07FF07FF0700006C
:104A2000E4E8E4E8E4E8E4E8E4E8E4E80000FF07B8
:104A3000FF07FF07FF07FF07FF07FF07FF07FF0746
:104A4000FF07FF07FF07FF07FF07FF07FF07FF0736
:104A5000FF07FF07FF07FF07FF07FF07FF07FF0726
:104A60000000E4E8E4E8E4E8E4E8E4E8E4E800007E
:104A7000FF07FF07FF07FF07FF07FF07FF07FF0706
:104A8000FF07FF07FF07FF07FF07FF07FF07FF07F6
:104A9000FF07FF07FF07FF07FF07FF07FF07FF07E6
:104AA000FF070000E4E8E4E8E4E8E4E8E4E8E4E838
:104AB0000000FF07FF07FF07FF07FF07FF07FF07CC
:104AC000FF07FF07FF07FF07FF07FF07FF07FF07B6
:104AD000FF07FF07FF07FF07FF07FF07FF07FF07A6
:104AE000FF07FF070000E4E8E4E8E4E8E4E8E4E8BE
:104AF000E4E80000FF07FF07FF07FF07FF07FF07C6
:104B0000FF07FF0700000000000000000000000099
:104B10000000000000000000000000000000000095
:104B2000000000000000FF070000E4E8E4E8E4E81B
:104B3000E4E80000FF07FF07FF07FF07FF07FF0785
:104B4000FF07FF070000E4E8E4E8E4E8E4E8E4E85D
:104B5000E4E8E4E8E4E8E4E8E4E8E4E8E4E8E4E8F5
:104B6000E4E8E4E8E4E8E4E80000FF070000E4E843
:104B7000E4E80000FF07FF07FF07FF07FF07FF0745
:104B8000FF07FF070000E4E8E4E8E4E8E4E8E4E81D
:104B9000E4E8E4E8E4E8E4E8E4E8E4E8E4E8E4E8B5
:104BA000E4E8E4E8E4E8E4E8E4E8E4E80000FF0737
:104BB00000000000FF07FF07FF07FF07FF07FF07D1
:104BC000FF07FF070000E4E8E4E8E4E8E4E8E4E8DD
:104BD000E4E8E4E8E4E8E4E8E4E8E4E8E4E8E4E875
:104BE000E4E8E4E8E4E8E4E8E4E8E4E8E4E8E4E865
:104BF0000000FF07FF07FF07FF07FF07FF07FF078B
:104C0000FF07FF07FF070000E4E8E4E8E4E8E4E862
:104C1000E4E8E4E8E4E8E4E8E4E8E4E8E4E8E4E834
:104C2000E4E8E4E8E4E8E4E8E4E8E4E8E4E8E4E824
:104C3000E4E80000FF07FF07FF07FF07FF07FF0784
:104C4000FF07FF07FF07FF07FF070000E4E8E4E8AE
:104C5000E4E8E4E8E4E8E4E8E4E8E4E8E4E8E4E8F4
:104C6000E4E8E4E8E4E8E4E8E4E8E4E8E4E8E4E8E4
:104C7000E4E80000FF07FF07FF07FF07FF07FF0744
:104C8000FF07FF07FF07FF07FF07FF07FF070000FA
:104C9000E4E8E4E8E4E8E4E8E4E8E4E8E4E8E4E8B4
:104CA000E4E8E4E8E4E8E4E8E4E8E4E8E4E8E4E8A4
:104CB000E4E80000FF07FF07FF07FF07FF07FF0704
:104CC000FF07FF07FF07FF07FF07FF07FF07FF07B4
:104CD000FF070000000000000000000000000000CE
:104CE00000000000000000000000000000000000C4
:104CF00000000000FF07FF07FF07FF07FF07FF0790
:104D0000FF07FF07FF07FF07FF07FF07FF07FF0773
:104D1000FF07FF07FF07FF07FF07FF07FF07FF0763
:104D2000FF07FF07FF07FF07FF07FF07FF07FF0753
:104D3000FF07FF07FF07FF07FF07FF07FF07FF0743
:104D4000FF07FF07FF07FF07FF07FF07FF07FF0733
:104D5000FF07FF07FF07FF07FF07FF07FF07FF0723
:104D6000FF07FF07FF07FF07FF07FF07FF07FF0713
:104D7000FF07FF07FF07FF07FF07FF07FF07FF0703
:104D8000FF07FF07FF07FF07FF07FF07FF07FF07F3
:104D9000FF07FF07FF07FF07FF07FF07FF07FF07E3
:104DA000FF07FF07FF07FF07FF07FF07FF07FF07D3
:104DB000FF07FF07FF07FF07FF07FF07FF07FF07C3
:104DC000FF07FF07FF07FF07FF07FF07FF07FF07B3
:104DD000FF07FF07FF07FF07FF07FF07FF07FF07A3
:104DE000FF07FF07FF07FF07FF07FF07FF07FF0793
:104DF000FF07FF07FF07FF07FF07FF07FF07FF0783
:104E0000FF07FF07FF07FF07FF07FF07FF07FF0772
:104E1000FF07FF07FF07FF07FF07FF07FF07FF0762
:104E2000FF07FF07FF07FF07FF07FF07FF07FF0752
:104E3000FF07FF07FF07FF07FF07FF07FF07FF0742
:104E4000FF07FF07FF07FF07FF07FF07FF07FF0732
:104E5000FF07FF0700000000FF07FF07FF07FF072E
:104E6000FF07FF07FF07FF07FF07FF07FF07FF0712
:104E7000FF07FF07FF07FF07FF07FF07FF07FF0702
:104E8000FF07FF07FF0700000000FF07FF07FF07FE
:104E9000FF07FF070000E4E8E4E80000FF07FF0762
:104EA000FF07FF07FF07FF07FF07FF07FF07FF07D2
:104EB000FF07FF07FF07FF07FF07FF07FF07FF07C2
:104EC000FF07FF07FF070000E4E8E4E80000FF0732
:104ED000FF07FF070000E4E8E4E8E4E8E4E8000096
:104EE000FF07FF07FF07FF07FF07FF07FF07FF0792
:104EF000FF07FF07FF07FF07FF07FF07FF07FF0782
:104F0000FF07FF07FF070000E4E8E4E8E4E8E4E85F
:104F10000000FF070000E4E8E4E8E4E8E4E8E4E88F
:104F2000E4E80000FF07FF07FF07FF07FF07FF0791
:104F3000FF07FF07FF07FF07FF07FF07FF07FF0741
:104F4000FF07FF07FF070000E4E8E4E8E4E8E4E81F
:104F5000E4E8E4E800000000E4E8E4E8E4E8E4E889
:104F6000E4E8E4E80000FF07FF07FF07FF07FF078B
:104F7000FF07FF07FF07FF07FF07FF07FF07FF0701
:104F8000FF07FF07FF07FF070000E4E8E4E8E4E8A5
:104F9000E4E8E4E8E4E800000000E4E8E4E8E4E849
:104FA000E4E8E4E8E4E80000FF07FF07FF07FF0785
:104FB000FF07FF07FF07FF07FF07FF07FF07FF07C1
:104FC000FF07FF07FF07FF07FF070000E4E8E4E82B
:104FD000E4E8E4E8E4E8E4E800000000E4E8E4E809
:104FE000E4E8E4E8E4E8E4E80000FF07FF07FF077F
:104FF000FF07FF07FF07FF07FF07FF07FF07FF0781
:10500000FF07FF07FF07FF07FF07FF070000E4E8B0
:10501000E4E8E4E8E4E8E4E8E4E800000000E4E8C8
:10502000E4E8E4E8E4E8E4E8E4E80000FF07FF0778
:10503000FF07FF07FF07FF07FF07FF07FF07FF0740
:10504000FF07FF07FF07FF07FF07FF07FF07000036
:10505000E4E8E4E8E4E8E4E8E4E8E4E80000000088
:10506000E4E8E4E8E4E8E4E8E4E8E4E80000FF0772
:10507000FF07FF07FF07FF07FF07FF07FF07FF0700
:10508000FF07FF07FF07FF07FF07FF07FF07FF07F0
:105090000000E4E8E4E8E4E8E4E8E4E8E4E8000048
:1050A0000000E4E8E4E8E4E8E4E8E4E8E4E8000038
:1050B000FF07FF07FF07FF07FF07FF07FF07FF07C0
:1050C000FF07FF07FF07FF07FF07FF07FF07FF07B0
:1050D000FF070000E4E8E4E8E4E8E4E8E4E8E4E802
:1050E00000000000E4E8E4E8E4E8E4E8E4E8E4E8F8
:1050F0000000FF07FF07FF07FF07FF07FF07FF0786
:10510000FF07FF07FF07FF07FF07FF07FF07FF076F
:10511000FF07FF070000E4E8E4E8E4E8E4E8E4E887
:10512000E4E800000000E4E8E4E8E4E8E4E8E4E8B7
:10513000E4E80000FF07FF07FF07FF07FF07FF077F
:10514000FF07FF07FF07FF07FF07FF07FF07FF072F
:10515000FF07FF07FF070000E4E8E4E8E4E8E4E80D
:10516000E4E8E4E800000000E4E8E4E8E4E8E4E877
:10517000E4E8E4E80000FF07FF07FF07FF07FF0779
:10518000FF07FF07FF07FF07FF07FF07FF07FF07EF
:10519000FF07FF07FF07FF070000E4E8E4E8E4E893
:1051A000E4E8E4E8E4E800000000E4E8E4E8E4E837
:1051B000E4E8E4E8E4E80000FF07FF07FF07FF0773
:1051C000FF07FF07FF07FF07FF07FF07FF07FF07AF
:1051D000FF07FF07FF07FF07FF070000E4E8E4E819
:1051E000E4E8E4E8E4E8E4E800000000E4E8E4E8F7
:1051F000E4E8E4E8E4E8E4E80000FF07FF07FF076D
:10520000FF07FF07FF07FF07FF07FF07FF07FF076E
:10521000FF07FF07FF07FF07FF07FF070000E4E89E
:10522000E4E8E4E8E4E8E4E8E4E800000000E4E8B6
:10523000E4E8E4E8E4E8E4E8E4E80000FF07FF0766
:10524000FF07FF07FF07FF07FF07FF07FF07FF072E
:10525000FF07FF07FF07FF07FF07FF07FF07000024
:10526000E4E8E4E8E4E8E4E8E4E8E4E80000000076
:10527000E4E8E4E8E4E8E4E8E4E8E4E80000FF0760
:10528000FF07FF07FF07FF07FF07FF07FF07FF07EE
:10529000FF07FF07FF07FF07FF07FF07FF07FF07DE
:1052A0000000E4E8E4E8E4E8E4E8E4E8E4E8000036
:1052B0000000E4E8E4E8E4E8E4E8E4E8E4E8000026
:1052C000FF07FF07FF07FF07FF07FF07FF07FF07AE
:1052D000FF07FF07FF07FF07FF07FF07FF07FF079E
:1052E000FF070000E4E8E4E8E4E8E4E8E4E8E4E8F0
:1052F00000000000E4E8E4E8E4E8E4E8E4E8E4E8E6
:105300000000FF07FF07FF07FF07FF07FF07FF0773
:10531000FF07FF07FF07FF07FF07FF07FF07FF075D
:10532000FF07FF070000E4E8E4E8E4E8E4E8E4E875
:10533000E4E800000000E4E8E4E8E4E8E4E8E4E8A5
:10534000E4E80000FF07FF07FF07FF07FF07FF076D
:10535000FF07FF07FF07FF07FF07FF07FF07FF071D
:10536000FF07FF07FF070000E4E8E4E8E4E8E4E8FB
:10537000E4E8E4E80000FF070000E4E8E4E8E4E82B
:10538000E4E80000FF07000000000000000000004B
:10539000000000000000000000000000000000000D
:1053A0000000000000000000FF070000E4E8E4E85F
:1053B000E4E8E4E80000FF07FF07FF070000E4E877
:1053C000E4E80000FF070000E4E8E4E8E4E8E4E8DB
:1053D000E4E8E4E8E4E8E4E8E4E8E4E8E4E8E4E86D
:1053E000E4E8E4E8E4E8E4E8E4E80000FF070000BB
:1053F000E4E8E4E80000FF07FF07FF07FF07FF07F7
:1054000000000000FF070000E4E8E4E8E4E8E4E866
:10541000E4E8E4E8E4E8E4E8E4E8E4E8E4E8E4E82C
:10542000E4E8E4E8E4E8E4E8E4E8E4E8E4E80000E8
:10543000FF0700000000FF07FF07FF07FF07FF0748
:10544000FF07FF07FF070000E4E8E4E8E4E8E4E81A
:10545000E4E8E4E8E4E8E4E8E4E8E4E8E4E8E4E8EC
:10546000E4E8E4E8E4E8E4E8E4E8E4E8E4E8E4E8DC
:10547000E4E80000FF07FF07FF07FF07FF07FF073C
:10548000FF07FF07FF07FF070000E4E8E4E8E4E8A0
:10549000E4E8E4E8E4E8E4E8E4E8E4E8E4E8E4E8AC
:1054A000E4E8E4E8E4E8E4E8E4E8E4E8E4E8E4E89C
:1054B000E4E8E4E80000FF07FF07FF07FF07FF0736
:1054C000FF07FF07FF07FF07FF07FF070000E4E8EC
:1054D000E4E8E4E8E4E8E4E8E4E8E4E8E4E8E4E86C
:1054E000E4E8E4E8E4E8E4E8E4E8E4E8E4E8E4E85C
:1054F000E4E8E4E80000FF0700000000FF07FF0702
:10550000FF07FF07FF07FF07FF07FF07FF07FF076B
:105510000000E4E8E4E8E4E8E4E8E4E8E4E8E4E8F7
:10552000E4E8E4E8E4E8E4E8E4E8E4E8E4E8E4E81B
:10553000E4E8E4E80000FF070000E4E8E4E8000035
:10554000FF07FF07FF07FF07FF07FF07FF07FF072B
:10555000FF07FF070000000000000000000000003F
:10556000000000000000000000000000000000003B
:10557000000000000000FF070000E4E8E4E8E4E8C1
:10558000E4E80000FF07FF07FF07FF07FF07FF072B
:10559000FF07FF07FF07FF07FF07FF07FF07FF07DB
:1055A000FF07FF07FF07FF07FF07FF07FF07FF07CB
:1055B000FF07FF07FF07FF070000E4E8E4E8E4E86F
:1055C000E4E8E4E8E4E80000FF07FF07FF07FF075F
:1055D000FF07FF07FF07FF07FF07FF07FF07FF079B
:1055E000FF07FF07FF07FF07FF07FF07FF07FF078B
:1055F000FF07FF07FF07FF07FF070000E4E8E4E8F5
:10560000E4E8E4E8E4E8E4E80000FF07FF07FF0758
:10561000FF07FF07FF07FF07FF07FF07FF07FF075A
:10562000FF07FF07FF07FF07FF07FF07FF07FF074A
:10563000FF07FF07FF07FF07FF07FF070000E4E87A
:10564000E4E8E4E8E4E8E4E8E4E80000FF07FF0752
:10565000FF07FF07FF07FF07FF07FF07FF07FF071A
:10566000FF07FF07FF07FF07FF07FF07FF07FF070A
:10567000FF07FF07FF07FF07FF07FF07FF07000000
:10568000E4E8E4E8E4E8E4E8E4E8E4E80000FF074C
:10569000FF07FF07FF07FF07FF07FF07FF07FF07DA
:1056A000FF07FF07FF07FF07FF07FF07FF07FF07CA
:1056B000FF07FF07FF07FF07FF07FF07FF07FF07BA
:1056C0000000E4E8E4E8E4E8E4E8E4E8E4E8000012
:1056D000FF07FF07FF07FF07FF07FF07FF07FF079A
:1056E000FF07FF07FF07FF07FF07FF07FF07FF078A
:1056F000FF07FF07FF07FF07FF07FF07FF07FF077A
:10570000FF070000E4E8E4E8E4E8E4E8E4E8E4E8CB
:105710000000FF07FF07FF07FF07FF07FF07FF075F
:10572000FF07FF07FF07FF07FF07FF07FF07FF0749
:10573000FF07FF07FF07FF07FF07FF07FF07FF0739
:10574000FF07FF070000E4E8E4E8E4E8E4E8E4E851
:10575000E4E80000FF07FF07FF07FF07FF07FF0759
:10576000FF07FF07FF07FF07FF07FF07FF07FF0709
:10577000FF07FF07FF07FF07FF07FF07FF07FF07F9
:10578000FF07FF07FF070000E4E8E4E8E4E8E4E8D7
:10579000E4E8E4E80000FF07FF07FF07FF07FF0753
:1057A000FF07FF07FF07FF07FF07FF07FF07FF07C9
:1057B000FF07FF07FF07FF07FF07FF07FF07FF07B9
:1057C000FF07FF07FF07FF070000E4E8E4E8E4E85D
:1057D000E4E8E4E8E4E80000FF07FF07FF07FF074D
:1057E000FF07FF07FF07FF07FF07FF07FF07FF0789
:1057F000FF07FF07FF07FF07FF07FF07FF07FF0779
:10580000FF07FF07FF07FF07FF070000E4E8E4E8E2
:10581000E4E8E4E8E4E8E4E80000FF07FF07FF0746
:10582000FF07FF07FF07FF07FF07FF07FF07FF0748
:10583000FF07FF07FF07FF07FF07FF07FF07FF0738
:10584000FF07FF07FF07FF07FF07FF070000E4E868
:10585000E4E8E4E8E4E8E4E8E4E80000FF07FF0740
:10586000FF07FF07FF07FF07FF07FF07FF07FF0708
:10587000FF07FF07FF07FF07FF07FF07FF07FF07F8
:10588000FF07FF07FF07FF07FF07FF07FF070000EE
:10589000E4E8E4E8E4E8E4E8E4E8E4E80000FF073A
:1058A000FF07FF07FF07FF07FF07FF07FF07FF07C8
:1058B000FF07FF07FF07FF07FF07FF07FF07FF07B8
:1058C000FF07FF07FF07FF07FF07FF07FF07FF07A8
:1058D0000000E4E8E4E8E4E8E4E8E4E8E4E8000000
:1058E000FF07FF07FF07FF07FF07FF07FF07FF0788
:1058F000FF07FF07FF07FF07FF07FF07FF07FF0778
:10590000FF07FF07FF07FF07FF07FF07FF07FF0767
:10591000FF070000E4E8E4E8E4E8E4E8E4E8E4E8B9
:105920000000FF07FF07FF07FF07FF07FF07FF074D
:10593000FF07FF07FF07FF07FF07FF07FF07FF0737
:10594000FF07FF07FF07FF07FF07FF07FF07FF0727
:10595000FF07FF070000E4E8E4E8E4E8E4E8E4E83F
:10596000E4E80000FF07FF07FF07FF07FF07FF0747
:10597000FF07FF07FF07FF07FF07FF07FF07FF07F7
:10598000FF07FF07FF07FF07FF07FF07FF07FF07E7
:10599000FF07FF07FF070000E4E8E4E8E4E8E4E8C5
:1059A000E4E8E4E80000FF07FF07FF07FF07FF0741
:1059B000FF07FF07FF07FF07FF07FF07FF07FF07B7
:1059C000FF07FF07FF07FF07FF07FF07FF07FF07A7
:1059D000FF07FF07FF07FF070000E4E8E4E8E4E84B
:1059E000E4E8E4E8E4E80000FF07FF07FF07FF073B
:1059F000FF07FF07FF07FF07FF07FF07FF07FF0777
:105A0000FF07FF07FF07FF07FF07FF07FF07FF0766
:105A1000FF07FF07FF07FF07FF07FF070000E4E896
:105A2000E4E8E4E8E4E80000FF07FF07FF07FF07FA
:105A3000FF07FF07FF07FF07FF07FF07FF07FF0736
:105A4000FF07FF07FF07FF07FF07FF07FF07FF0726
:105A5000FF07FF07FF07FF07FF07FF07FF07FF0716
:105A60000000E4E8E4E80000FF07FF07FF07FF0786
:105A7000FF07FF07FF07FF07FF07FF07FF07FF07F6
:105A8000FF07FF07FF07FF07FF07FF07FF07FF07E6
:105A9000FF07FF07FF07FF07FF07FF07FF07FF07D6
:105AA000FF07FF0700000000FF07FF07FF07FF07D2
:105AB000FF07FF07FF07FF07FF07FF07FF07FF07B6
:105AC000FF07FF07FF07FF07FF07FF07FF07FF07A6
